:1000000000060020E9040000350500003905000065
:1000100000000000000000000000000000000000E0
:100020000000000000000000000000003D0500008E
:100030000000000000000000410500004505000030
:1000400031050000310500003105000031050000D8
:10005000310500003105000031050000F53C0000CD
:1000600049050000310500004D0500003105000084
:100070005105000031050000310500003105000088
:100080003105000031050000310500003105000098
:100090003105000031050000310500003105000088
:1000A0003105000031050000310500003105000078
:1000B0007D3F00003105000031050000AD37000034
:10040000FFFFFFFFFFFFFFFFFFFFFFFFFE3DFFFFBF
:1004100010B5064C2378002B07D1054B002B02D0DA
:10042000044800E000BF0123237010BD74FEFF1FCD
:10043000000000001C6E000008B5084B002B03D024
:100440000748084900E000BF07480368002B03D0B5
:10045000064B002B00D0984708BDC04600000000A6
:100460001C6E000078FEFF1F70FEFF1F00000000E2
:10047000164B002B00D1144B9D46402292029A1A33
:10048000924600218B460F461348144A121A06F072
:100490000AF90F4B002B00D098470E4B002B00D0D1
:1004A00098470020002104000D000D48002802D0CC
:1004B0000C4800E000BF06F0C7F82000290002F059
:1004C000BFFC06F0ABF8C0460000080000060020A4
:1004D000000000000000000074FEFF1F04FFFF1F6B
:1004E000000000000000000072B60A480A490160DE
:1004F0000A6882F30888094880470949094A0A4B73
:100500009B1A03DD043BC858D050FBDC62B6074899
:100510008047000008ED00E000000000E5620000F8
:10052000446E000000FEFF1F74FEFF1F71040000F8
:10053000084800470848004708480047084800475F
:10054000084800470848004708480047084800474F
:100550000848004731050000350500003905000056
:100560003D0500004105000045050000D95500008B
:10057000A9620000AD5E0000002934D001230022F2
:1005800010B488422CD301242407A14204D2814212
:1005900002D209011B01F8E7E400A14204D2814222
:1005A00002D249005B00F8E7884201D3401A1A439F
:1005B0004C08A04202D3001B5C0822438C08A042D6
:1005C00002D3001B9C082243CC08A04202D3001B8C
:1005D000DC082243002803D01B0901D00909E3E706
:1005E000101C10BC7047002801D00020C04307B485
:1005F000024802A14018029003BDC046D900000085
:100600000029F0D003B5FFF7B9FF0EBC4243891AA9
:100610001847C046002941D010B4041C4C40A446E1
:1006200001230022002900D54942002800D540427C
:1006300088422CD301242407A14204D2814202D251
:1006400009011B01F8E7E400A14204D2814202D271
:1006500049005B00F8E7884201D3401A1A434C086E
:10066000A04202D3001B5C0822438C08A04202D3A4
:10067000001B9C082243CC08A04202D3001BDC08CC
:100680002243002803D01B0901D00909E3E7101C0D
:100690006446002C00D5404210BC7047002806D0AC
:1006A00003DB0020C043400801E08020000607B4BF
:1006B000024802A14018029003BDC0461900000084
:1006C0000029EBD003B5FFF7A7FF0EBC4243891A00
:1006D0001847C0467047C0468446101C62468C4688
:1006E000191C634600E0C0461FB500F041FF00281A
:1006F00001D40021C8421FBD10B500F071FE404278
:10070000013010BD10B500F033FF002801DB0020E0
:1007100010BD012010BDC04610B500F029FF002813
:1007200001DD002010BD012010BDC04610B500F055
:10073000A1FE002801DC002010BD012010BDC04634
:1007400010B500F097FE002801DA002010BD01204E
:1007500010BDC046F8B55F46564644464D46F0B417
:100760000C034D00CE0F610A440F2143C40018034F
:1007700080465800400D8246D80F84464046400AC5
:10078000530F0343D0006D0D371C83465246664518
:1007900000D1A4E0AF1A002F00DC09E1002A3BD110
:1007A000184300D0EAE0630700D187E00F2323401D
:1007B000042B00D182E0221DA242A4416442802386
:1007C00009191B040B40371C141C002B00D17CE0C2
:1007D000CE4B01359D4200D105E1CD4BE4081940D7
:1007E0004807490204430B0B002000211B031A0B8E
:1007F0000B0D6D051B0513436A08C64DFF071D4011
:1008000015436D006D08291C3943201C3CBC9046E3
:100810009946A246AB46F8BDBC488542C3D080206D
:1008200000040343382F00DDF0E01F2F00DD24E13A
:100830002020C01B1A1C814682405846F8400243C3
:10084000944658464A469040421E9041FB406246BC
:1008500002431F1CA21A9442A4416442C91B091BF3
:10086000141C0B029FD549024F0A002F00D1C8E08B
:10087000381C01F031FD021C083A1F2A00DDB5E0EA
:100880002821091A201C9740C840074394409542EC
:1008900000DDB2E0551B691C1F2900DDDCE01F22D2
:1008A000551B3B1C221CAB40CA40AC40651EAC41F2
:1008B0001343CF401C43391C002574E780231B04DD
:1008C0000B40371C002B00D082E7904B4807E40810
:1008D0000443C9089D4248D009030B0B84E7AA1AB8
:1008E0009446002A00DC98E05046002852D0874801
:1008F000854200D157E78020000403436246382A2E
:1009000000DDFCE01F2A00DD4AE120226046101ACB
:100910001A1C82408246914658466246D0404A465A
:1009200002439046584652469040421E90414246ED
:1009300002436046C3401219A242A44164425918BE
:100940000919141C080200D42DE7704B01359D4293
:1009500000D122E16E4B60081940012323401C1C8A
:100960000443CB071C4349081DE7231C0B433AD023
:1009700080231B030B431B031B0B35E7013F002F99
:1009800065D15846221A9442A4416442C91A091BEF
:10099000141C66E75846184300D104E7012252426E
:1009A00094446046002800D0C5E058460219C3E7C9
:1009B000002F73D1681C4005400D012800DCDEE0EB
:1009C0005A46A21A9442BF41C81A7F42C71B380236
:1009D00000D489E05A46141BA3459241591A524249
:1009E0008F1A664641E700230024FDE6271C2838BD
:1009F00087400024954200DC4CE74549AD1A394058
:100A0000D1E6201C01F068FC203034E75A461A4336
:100A1000531E9A41D2B200271CE7002A00D0DCE026
:100A2000681C4205520D012A00DC8DE0374DA842BA
:100A300000D1F3E05D462A19A242A441644259184C
:100A40000919CC07520814434908051CABE62F4886
:100A5000854200D0E6E6A6E62B1C1F3B3A1CDA4096
:100A6000131C20296CD03F22551BAF403C43601E15
:100A700084411C430021002595E6381C20381A1CAF
:100A8000C240101C202F5DD04022D71BBB405A46CD
:100A90001A43531E9A4102430027DBE6002D3BD048
:100AA0001A4DAA4500D193E080252D047F422943A9
:100AB000382F00DDACE01F2F00DD29E12025ED1BE4
:100AC000081C261CA840FE40AC400643651EAC41F5
:100AD0003443F9405D462C1BA34592415B1A5242B8
:100AE000991A55466646BCE6131C3B43141C002B62
:100AF00000D0BAE60027002100250024E5E65A468A
:100B00001A43531E9A41D2B2002314E7FF07000094
:100B1000FFFF7FFFFFFF0F800D1C254358D0FF43D1
:100B2000002F51D1041BA3459241591A5242891AF0
:100B30005546664695E69648854200D0DEE632E6A2
:100B4000002793E70023A2E7081C2043002D00D0D4
:100B5000C4E0002800D1F7E05846184300D122E64F
:100B600058460219A242A441644259180919141C9A
:100B70000A0200D417E6874B0125194013E6081C2A
:100B80002043002D39D1002871D15946194303D093
:100B9000191C5C46664606E600270021002494E600
:100BA000604620381A1CC24060469146202800D179
:100BB000ACE04022121A93405A461A43531E9A41FF
:100BC0004B461A430023B6E6714DAA4500D06FE7A5
:100BD000191C5C4655466646E5E5002D22D10D1CE4
:100BE000254377D0D543002D71D15C445C459241BB
:100BF0005918524289185546A4E600284DD1594645
:100C0000194300D194E0191C5C466646604DCAE564
:100C10000C43611E8C41E4B200215BE7051C0021FE
:100C2000002452E65A4DAA4554D055428022100461
:100C30000143382D00DD81E01F2D00DD92E02022F0
:100C4000501B0A1C84468240201CE8400243904608
:100C500062469440601E844142461443E9405C442D
:100C60005C459241CB185242991855466AE658465F
:100C7000184300D197E55846271ABC429241C81A3A
:100C80005242801A020266D55846041BA34592417F
:100C9000591A5242891A664685E55846184333D098
:100CA0004807E40804438020C9080003014208D033
:100CB000DD08054205D15946CA085C071443291CC2
:100CC0006646630FC9001943E400314D6BE5304AB5
:100CD0009245AED1191C5C46554664E5002836D0D5
:100CE0005846184310D080254807E408C9082D034A
:100CF00004432942E5D0D8082842E2D15D46EA08FB
:100D00005C071443011CDCE7214D4CE5002353E74D
:100D10003D1C203D0A1CEA40151C202F34D04026E3
:100D2000F71BB9400C43611E8C412C430021D1E6D6
:100D300080210027C903164D0024C6E50C43611E1F
:100D40008C41E4B200218AE7191C5C462BE5191C92
:100D50005C460F4D27E5031C3B4300D11CE7011CFB
:100D60003C1C20E52020404240190A1CC24090460D
:100D7000202D0BD04020451BA9400C43611E8C4107
:100D800045462C4300216AE70021CBE70021F4E728
:100D9000FF070000FFFF7FFFF0B5564644465F4661
:100DA0004D46F0B41F1C0B031B0B98464B0087B03D
:100DB000041C81465B0DC80F161C9A460090002B40
:100DC00051D06A4B9A4531D08022414652030A43A2
:100DD000630FD2001A43664B90460025E20091460D
:100DE0009A44002402953B031B0B9B46FD0F7B009E
:100DF000311C5B0D019560D05C4A934254D0802138
:100E0000584649030143720FC9001143584A8B46A3
:100E10009B18F1000020009A04436A4003920F2CB3
:100E200000D9ADE0534EA4003459A74640460443D0
:100E30006ED1002102250824884689460295D2E712
:100E4000009C0298C34649460194022864D00328B6
:100E500000D1ABE2012800D038E2019A0024024020
:100E60000025A14660E0434623434AD0404600287F
:100E700000D1C0E101F030FA031E272B00DDB3E101
:100E800028210D1A211C083B4246E9409A400D1CBE
:100E90001543221C9A40A8469146374B00251B1A41
:100EA0009A46002402959EE75A4616430320002ED8
:100EB000B1D1B34600210220ADE75A4632431BD0E0
:100EC0005B46002B00D18AE1584601F005FA27283D
:100ED00000DD7DE12822171A011C321C08395B460F
:100EE000FA408B40171C1F43331C8B40BB46191C18
:100EF000214B1B1A00208EE70027BB460021012052
:100F000089E70020012504248046814602956AE78E
:100F100003250C24029566E7019C0394039D01229E
:100F20002A400024114DA146002000212403260B55
:100F30000C0D2405114B34432D0523402B435B003E
:100F40005B08D207191C4846114307B03CBC9046C9
:100F50009946A246AB46F0BD002280242403914668
:100F6000024DE1E700240025A146DDE7FF07000070
:100F700001FCFFFFEC6A00000DFCFFFFFFFF0F808C
:100F80005546ED1A0495D84500D953E100D14EE1FC
:100F9000049C0025013C4E4604944746A946584609
:100FA00003020C0E1C430902250C23041B0C0091A8
:100FB000381C291C0193FFF7DFFA0199834641434E
:100FC000381C8A46291CFFF71BFB330C0904194304
:100FD0008A450CD95B460919013B8C4200D947E18F
:100FE0008A4500D844E102225242934409195346EB
:100FF000CB1A181C291C9846FFF7BEFA071C01984B
:10100000291C784382464046FFF7FAFA36040B045F
:10101000360C33439A4509D91B197A1E9C4200D9D4
:1010200024E19A4500D821E1023F1B195E463204B3
:101030001743380CBB46009E009F51463F0C3204BC
:101040005B1A5946BA46120C0F043F0C90465146A3
:101050007A434F434146414356467043CF19160CDD
:10106000BE19B14202D980277F02C019310C120487
:101070003604120C4018B618834200D2C4E000D1E6
:10108000BEE0191A4846861BB145BF417F42CF1BBF
:10109000A74200D113E1291C381CFFF76DFA019912
:1010A00002904143381C8946291CFFF7A9FA330CEA
:1010B0000904194389450CD9029B0919013B8C424B
:1010C00000D9FFE0894500D8FCE0029F0919023FE2
:1010D00002974F46CF1B381C291C0597FFF74CFA87
:1010E000071C0198291C784381460598FFF788FA68
:1010F00036040904360C0E43B14509D936197B1E56
:10110000B44200D9E0E0B14500D8DDE0023F361935
:10111000029D4946761A290439430B0457460A0CA6
:101120001B0C40464546584355437B437A43EB18D6
:10113000070CDB199D4202D980256D0252191D0C46
:1011400000041B04000C52191B18964235D300D121
:10115000FCE001231943049E994FF519002D00DC92
:10116000A1E0480709D00F230B40042B05D00B1D2D
:101170008B42894149428B44191C5A46D20107D5FA
:10118000904B5C46049E80271C40FF00A346F51947
:101190008D4B9D427ADD039C0122224000248B4D21
:1011A000A146C1E680242403474627424CD13C4354
:1011B0002403240B009A854DB6E63619481EB44226
:1011C0005ED9011C9642C4D1009E9E42C1D1C2E7A5
:1011D000031C283B311C99408B46002188E6301CBB
:1011E00001F07AF8203072E6283B211C9940002259
:1011F0008846914651E6201C01F06EF820303BE60F
:101200000021B14500D33DE7009F5A46B944B94596
:10121000BF417F423F19FB18013A9C421ED29842BF
:1012200000D97EE000D1B5E0191A93462AE7894536
:1012300000D8ADE64846464642467708D3074608FA
:10124000C0071E438146AAE65846204212D10443F5
:1012500024032A1C240B89465C4D65E6A342E3D196
:10126000009F4F45DBD9211A93460BE7171CDDE69B
:101270009B46BCE63C432403240B009A534D53E6A3
:10128000B24259D800D18AE0011C62E75F46C90822
:101290007B07039E0B437C026D0501229946240BBC
:1012A0006D0D324040E64A4B049FDB1B382B10DDAE
:1012B000039C0122224000240025A14634E601219E
:1012C000494248E7029304E71F1C21E7019C03946D
:1012D00041E71F2B40DC3F48049F0C1C3A1858463E
:1012E0009140DC40904020430A1C511E8A41011C61
:1012F00011435A46DA40131C480709D00F220A400E
:10130000042A05D00A1D8A42894149425B18111CF2
:101310001A0234D5039C0122224000240125A14653
:1013200002E6009F02214942B9448B44B9458941F4
:1013300049420919CB18A4E6009D881E6900A942FC
:10134000AD416D422C19361900913AE7002B00D0BF
:1013500033E70024009437E71F4A049C5D46121BC4
:10136000D5402A1C202B1FD01C4E5F46A3199F403E
:101370003B1C19434B1E994111430023BCE75A07FC
:10138000C9080A43039F91465B0201221C0B3A40A5
:101390000025C9E54E45C4D89346002172E6009F5A
:1013A0009F42C9D3011C0FE70023E2E780242403F6
:1013B0005F463C432403240B019A8946034DB3E561
:1013C000FF030000FFFFFFFEFE070000FF07000015
:1013D00002FCFFFF1E040000E2FBFFFF3E040000D2
:1013E000F0B55F4656464D464446F0B40D1C041C0D
:1013F0008046E80F814618030F03000B3F0B83B0B4
:1014000084461B48009749005E00DF0F490D924655
:10141000760DBB4681420CD01548864210D0012083
:10142000B14215D003B03CBC90469946A246AB46AB
:10143000F0BD009F01202743F4D10D488642EED134
:10144000604602430120002AECD10120B142E9D1DB
:10145000009B6345E6D1D045E4D1D94506D00029AB
:10146000E0D11C43201C441EA041DBE70020D9E74B
:10147000FF070000F0B55F4656464D464446F0B4BF
:10148000CD0FDE0FAC461D032D0BB146374E0F03BB
:101490004C00AB465D0080463F0B640D92466D0DDF
:1014A000B44232D0314EB54235D0002C0ED1384343
:1014B00041424141081C002D0BD0002919D1CC45D7
:1014C0002DD0654668420123184318E0002DF6D15F
:1014D000281C59460A4353425341002806D1002B89
:1014E000EDD0634658420123184308E00020002B4A
:1014F00005D14A46504250414042012318433CBC6A
:1015000090469946A246AB46F0BD3E1C0643C9D064
:1015100002204042F3E75E461643C6D0F8E7AC42ED
:1015200007DC0BDA61464842484140420123184338
:10153000E5E76646704201231843E0E75F450AD8B5
:101540000ED000205F45DAD26546684268414042CD
:1015500001231843D3E76246504201231843CEE7E4
:10156000D045F8D80020D045EED3C8E7FF070000EB
:10157000F0B556464D4644465F46F0B40D1C83B068
:10158000041C0190E80F814618030F03000B3F0B6A
:1015900084463548009749005E00DF0F490D9246AA
:1015A000760DB846814234D02F48864236D0002985
:1015B00018D0002E1FD1341C67463A435342534182
:1015C000002C1FD00020002B05D142465042504134
:1015D00040420123184303B03CBC90469946A246C2
:1015E000AB46F0BD0098044360426041041C002EED
:1015F000E2D00028E9D1C14515D04F4678420123F9
:101600001843E8E7002BF6D04B4658420123184315
:10161000E1E7009F02202743DDD1C5E767460220AE
:101620001743D8D1C3E7B14204DD4A4650420123F3
:101630001843D0E7B14207DB00986045E4D80AD0F0
:10164000009F00206745C6D24F467842784140420D
:1016500001231843BFE7019A5245D5D8019A0020CB
:101660005245F1D3B7E7C046FF070000F0B5564634
:1016700044465F464D46F0B41F1C0B031B0B9A46B5
:101680004B0087B0041C80465B0DC80F161C0293EC
:101690008146002B68D0694B0299994232D0802252
:1016A000534652031A43D200630F1A439246644AC8
:1016B000E000891880460291002400253B031B0BA3
:1016C0009B467800FB0F321C400D039300D175E060
:1016D0005A4B984269D08022594652030A43730FED
:1016E000D2001A43564B9346C018F20000230399C8
:1016F0004E4671401C430F2C00D9A9E0514EA40066
:101700003459A74653461C4300D087E00025AA461B
:10171000A84608240225D1E74946022D6CD0032DA6
:1017200000D117E2012D00D058E10D40EDB20024A8
:10173000A9460023A0460020002125030A0D1C0510
:101740002D0B1205404B2A43134023435B004C46AC
:101750005B08E207191C4046114307B03CBC9046A9
:101760009946A246AB46F0BD5346234350D053465C
:10177000002B00D184E1504600F0AEFD031E272B64
:1017800000DD76E128210D1A211C083B5246E94074
:101790009A400D1C1543221C9A40AA4690462B4B9A
:1017A00000241B1A0293002588E75B461E4303238F
:1017B000002E9CD1B3460022022398E75B463343B8
:1017C00021D05846002800D14EE100F085FD2728A1
:1017D00000DD42E128210F1A021C311C083A5B4649
:1017E000F94093400F1C1F43331C9340BB461A1C07
:1017F000164B181A00237AE701230B400024994660
:10180000A0460E4B97E70027BB46002201236EE758
:10181000002104248A46884601254FE70C2403252D
:101820004CE700258024A9462403A846034B82E701
:10183000DA46904603991D1C6FE7C046FF0700007B
:1018400001FCFFFF2C6B0000FFFF0F800DFCFFFF72
:10185000029F160C381804904046070C0004000C38
:101860001204120C031C5343041C3D1C74435543C7
:1018700098463B1C73436419A44644460293230CC8
:1018800063449D4204D9029D802464022D1902956F
:101890001D0C039545462C041B04240C1C190594AF
:1018A0005C46230C051C58432404240C8446381C35
:1018B000604365435F438146CC44280C6044BB468B
:1018C000814502D980277F02BB442D04070C2D0CD3
:1018D000000440195546BC462F04E3448446280CB6
:1018E0003D0C2F1C5743B8462F1C77434243B94643
:1018F00047463F0C9144BA46D14446434A4502D933
:1019000080225202B6184F463A0CB6183A0447469F
:101910003F043F0CB8462F1C67435D434443584384
:1019200065190190380C2D184244B846AC4204D9D0
:10193000019880235B02C0180190039C029F201C29
:101940006044C0196045A44147466442A4462B0444
:101950003C049946240C4C44A046D8448018C24606
:10196000E24490429241574652429146F219E24572
:10197000BF417F424B46BC46D845BF41D4187F4249
:1019800063461F432D0C7F19B24292414C45AD4135
:1019900052426D421543019E7D19AB19E20D5B0267
:1019A000059F134342023A439A46531E9A41C30D80
:1019B000101C18436402204380465046C0010DD5D8
:1019C000454601225646049C6B082A401A43F307F9
:1019D00001341A43760804949046B246049E634F3D
:1019E000F319002B61DD404640070BD00F2244461F
:1019F0002240042A06D042460432424580414042F9
:101A0000824490465546ED0107D5594B5646049FF2
:101A100080201E40C000B2463B18564A934200DD6B
:101A2000EAE644465546E2086807104301226C0284
:101A30005B050A408046240B5B0D91467BE6DA4647
:101A400090461D1C69E680242403574627421CD17A
:101A50003C432403240B484B6DE6031C283B311CFC
:101A600099408B460022C3E6301C00F035FC203044
:101A7000ADE6283B211C994000228A4690468EE61E
:101A8000201C00F029FC203078E65846204207D17F
:101A9000044303992403240B89469046364B4AE6B7
:101AA0003C432403240B344B45E6344B049E9B1BE0
:101AB000382B06DD01230B4000249946A046002365
:101AC00039E61F2B25DC049C2D4D464660195246F5
:101AD00044468640DC4082405746301C2243DF406B
:101AE000441EA04102433B1C540709D00F20104064
:101AF000042805D0101D9042924152429B18021CAE
:101B00001D021AD501230B4000249946A04601234B
:101B100011E61C48049C5546001BC540281C202B80
:101B200016D0194E5746A21997403A1C43461A43FD
:101B3000531E9A4102430023D6E758075B02D2089E
:101B40001C0B01230B401043994680460023F2E50D
:101B50000022EBE78024240350460123044319406C
:101B60002403240B8946044BE5E5C046FF0300002F
:101B7000FFFFFFFEFE070000FF07000002FCFFFF63
:101B80001E040000E2FBFFFF3E040000F8B55F46C4
:101B9000564644464D46F0B40C034D00CF0F610A43
:101BA000440F2143C4001803DE0F8046B446464666
:101BB0005800760A530F3343D600D14A6D0DBA460A
:101BC000400DB346904200D1F5E0624601267240D6
:101BD0009446674500D1ABE02F1A002F00DC11E1DD
:101BE00000283ED15846184300D0F1E0600700D1EC
:101BF00097E00F232340042B00D122E1221DA242B3
:101C0000A4416442802309191B04012750460B405C
:101C10000740141C002B00D179E0B94B01359D42DF
:101C200000D10BE1B74BE4081940480749020443CF
:101C30000B0B002000211B031A0B0B0D6D051B0560
:101C400013436A08B04DFF071D4015436D006D0832
:101C5000291C3943201C3CBC90469946A246AB4601
:101C6000F8BDA7488542C1D0802000040343382F27
:101C700000DDFDE01F2F00DD31E12020C01B1A1C1C
:101C80005E468240FE40324394465A468240101CD3
:101C9000421E9041FB40624602431F1CA21A94421E
:101CA000A4416442C91B091B141C0A029ED54902A7
:101CB0004F0A002F00D1D6E0381C00F00DFB021CAB
:101CC000083A1F2A00DDC3E02821231C091A974087
:101CD000CB401F439440954200DDC0E0551B691C7A
:101CE0001F2900DDEAE01F22551B3B1C221CAB40D4
:101CF000CA40AC40651EAC411343CF401C43391C65
:101D0000002573E780217E4D0027C90300247C4B0A
:101D10004807E4080443C9089D4250D009030B0B4F
:101D200087E780231B04012752460B40174071E7C9
:101D30002A1A9446002A00DCA1E0002854D07048FA
:101D4000854200D152E780200004034360463828D2
:101D500000DD0EE11F2800DD57E162462020801AD9
:101D60001E1C8640B1465E46D6404A4632435E4619
:101D700086409046301C421E9041424602436046D7
:101D8000C3401219A242A441644259180919141CF3
:101D9000080200D42AE75A4B01359D4200D131E1B7
:101DA000584B60081940012323401C1C0443CB07F7
:101DB0001C4349081AE71E4300D00AE705E7231C25
:101DC0000B433BD080231B030B431B031B0B30E750
:101DD000013F002F6DD15E46A21B9442A441644294
:101DE000C91A091B141C60E75846184300D1FDE6C8
:101DF00001267642B4446046002800D0D0E05E461A
:101E00003219BFE7002F00D080E0681C4005400D6C
:101E1000012800DCE8E05A46A21A9442BF41C81AE1
:101E20007F42C71B3E0200D498E05846041BA345DE
:101E30009241591A52428F1AE2463AE7002300248F
:101E4000F7E680231B04012756460B403740E1E6A6
:101E5000271C283887400024954200DC3EE72949AA
:101E6000AD1A3940C2E6201C00F036FA203026E7D1
:101E70005A461A43531E9A41D2B200270EE7002A4F
:101E800000D0DEE0681C4605760D012E00DC90E0F7
:101E90001B4DA84200D1F5E05E463219A242A44192
:101EA000644259180919CC07520814434908051C03
:101EB0009CE61348854200D0D9E697E62B1C1F3BD1
:101EC0003E1CDE40331C20296FD03F22551BAF4003
:101ED0003C43601E84411C430021002586E6381CDB
:101EE00020381E1CC640301C202F60D04022D71B3B
:101EF000BB405A461A43531E9A4102430027CDE67F
:101F0000FF070000FFFF7FFFFFFF0F80002D37D08E
:101F1000B64DA84200D18FE080252D047F42294391
:101F2000382F00DDA8E01F2F00DD24E12025ED1B68
:101F30000E1CAE40B046261CFE404246AC40164346
:101F4000651EAC413443F9405A46141BA3459241E7
:101F50005B1A5242991A051CE246A6E6131C3B4343
:101F6000141C002B00D0A4E600270021002500242B
:101F7000CDE65A461A43531E9A41D2B2002300E7D7
:101F80000D1C254358D0FF43002F51D15A46141B36
:101F9000A3459241591A5242891A051CE24684E629
:101FA0009248854200D0D1E620E6002790E7002342
:101FB0009FE7081C2043002D00D0C2E0002800D17C
:101FC000EFE05846184300D110E658460219A242E5
:101FD000A441644259180919141C0A0200D405E6E8
:101FE000834B0125194001E6081C2043002D38D100
:101FF00000286FD15946194303D0191C5C46E246AC
:10200000F4E500270021002481E6604620381A1CF0
:10201000C2406646101C202E00D1AAE04022921B2E
:1020200093405A461A43531E9A4102430023A8E69E
:102030006E4DA84200D073E7191C5C46051CE246B1
:10204000D4E5002D22D10D1C254376D0D543002D9B
:1020500070D15C445C459241591852428918051C64
:1020600096E600284CD15946194300D14AE6191C7E
:102070005C46E2465D4DB9E50C43611E8C41E4B21D
:10208000002161E7051C0021002440E6574DA842CD
:1020900053D05542802216043143382D7BDC1F2D4E
:1020A00000DD8CE02022561B0A1CB446B240261CE0
:1020B000EE403243904662469440661EB44142462A
:1020C0001443E9405C445C459241CB185242991854
:1020D000051C5DE65846184300D187E55E46A71B00
:1020E000BC429241C81A5242801A060260D5584634
:1020F000041BA3459241591A5242891AE24675E5DA
:102100005846184333D04807E40804438020C908E0
:102110000003014208D0DD08054205D15946CA082E
:102120005C071443291CE246630FC9001943E4000D
:102130002E4D5BE52D4A9042AFD1191C5C46051C23
:1021400054E5002830D05846184310D08025480761
:10215000E408C9082D0304432942E5D0D8082842E1
:10216000E2D15D46EA085C071443011CDCE71F4D21
:102170003CE5002355E73D1C203D0E1CEE40351C80
:10218000202F2ED04026F71BB9400C43611E8C41F6
:102190002C430021D8E60C43611E8C41E4B200219F
:1021A00090E7191C5C4621E5191C5C460F4D1DE5A6
:1021B000031C3B4300D124E7011C3C1C16E52026F0
:1021C000764276190A1CF2409046202D0BD040260C
:1021D000751BA9400C43611E8C4145462C430021D0
:1021E00070E70021D1E70021F4E7C046FF070000B7
:1021F000FFFF7FFF70B50B1C124C09030E0B59003B
:10220000021C490DDD0F0020A14211DD0E48814264
:102210000FDC8020400306430C48401A1F280BDDCA
:102220000B4A521AD640321C5042002D00D1101CCD
:1022300070BD084BE818FBE7074BC240C9188E4039
:102240003243F1E7FE0300001D04000033040000E8
:1022500013040000FFFFFF7FEDFBFFFFF8B5041E36
:1022600031D0C70F00D04442201C00F035F8184D83
:102270002D1A0A2819DD0B38844024036D05240B20
:102280006D0D3A1C0026002000210B0D2403240BA9
:102290001B0523430F4C2D051C402C436400640890
:1022A000D307211C301C1943F8BD061C1536231C0E
:1022B000B3401E1C0B23181AC44024036D05240BC5
:1022C0006D0D3A1CDFE70022002500240026DAE726
:1022D0001E040000FFFF0F801C2101231B049842F5
:1022E00001D3000C10391B0A984201D3000A0839A7
:1022F0001B09984201D30009043902A2105C40185E
:102300007047C04604030202010101010000000001
:102310000000000080B582B000AF78600A1CFB1C92
:102320001A70FB1C1B78002B07D07B689B688022EF
:1023300012031A437B689A6005E07B689A68034B36
:102340001A407B689A60BD4602B080BDFFFFF7FF70
:1023500080B582B000AF78600A1CFB1C1A70FB1CB1
:102360001B78002B07D07B689B688022D2021A431F
:102370007B689A6005E07B689A68034B1A407B682B
:102380009A60BD4602B080BDFFFFFBFF80B588B0FC
:1023900000AFF860B9603B60FB1D1A701E4B1B78E4
:1023A000002B01D0012333E01B4BFA1D12781A7069
:1023B000FB1D1B78022B2AD1FA68174B5A603B1C75
:1023C0001433181C03F050FC3B1C1433BA681A6019
:1023D000114B59683A1C14323B68081C111C1A1C1A
:1023E00003F0C2FA0C4B5B68181C0121FFF792FF47
:1023F000094B5B68181C0121FFF7AAFF064B074A2F
:102400009A60054B064ADA60C046002300E00423C8
:10241000181CBD4608B080BD90FEFF1F655D000022
:10242000C15D000080B500AF104B1B78002B01D1BF
:10243000002317E00D4B1B78022B05D10B4B5B687B
:10244000181C03F0DFFB03E0084B00221A70C046A3
:10245000064B1B78002B01D1042303E0034B002221
:102460001A700023181CBD4680BDC04690FEFF1F99
:102470000FB480B582B000AF0D4B1B78002B02D19A
:1024800001235B420DE03B1C14333B6009493A6970
:102490003B68081C111C1A1C00F0DAF8031C7B6056
:1024A0007B68181CBD4602B080BC08BC04B018474D
:1024B00090FEFF1FB924000090B583B000AF786094
:1024C0000A4B1B78002B02D101235B4209E0074B2A
:1024D0009C68064B5A683B1D101C191C0122A04722
:1024E0000123181CBD4603B090BDC04690FEFF1FDF
:1024F00080B586B000AFB9607A603B603B1C0F339B
:10250000021C1A70BB687B610EE03B1C0F3300227B
:102510009A563B6A101C98473B681B685A1C3B68DC
:102520001A607B6901337B617A697B689A42ECDBD4
:10253000BD4606B080BDC04680B58CB000AFF86027
:10254000B9607A603B600023FB61FB68BB61BB69DB
:102550005A1CBA6100221A707B68002B36D0BB6807
:102560001B68FB62FB6A002B07D1BB6930221A7023
:10257000FB690133FB61FB6966E023E0F86A3968B7
:10258000FEF748F8031C7B617B693A685343FA6A9B
:10259000D31ABB62BB6A002B06DABB6A3B623B6A9A
:1025A0003022D31ABB6202E0BB6A3033BB627B6964
:1025B000FB62BB695A1CBA61BA6AD2B21A70FB6973
:1025C0000133FB61FB6A002BD8D13CE0BB681B6880
:1025D0007B627B6A002B07D1BB6930221A70FB69D2
:1025E0000133FB61FB692FE02AE03B68786A191C24
:1025F000FDF7C2FF031C3B613B683A6953437A6AAB
:10260000D31A3B623B6A092B03D83B6A30333B62E7
:102610000BE03B1C38331B78002B01D0412300E03A
:1026200061233A6A9B180A3B3B623B697B62BB6948
:102630005A1CBA613A6AD2B21A70FB690133FB6163
:102640007B6A002BD1D1FB69181CBD460CB080BD44
:1026500080B59CB002AFF860B9607A6000233B6639
:102660000023FB650023BB613B1C4A3300221A7028
:1026700000233B61BB687B667FE17B6C252B07D029
:102680007A6CFB68101C9847BB690133BB6171E130
:102690003B1C4B3301221A7000237B650023BB6572
:1026A0001CE07B6E01337B667B6E1B785BB27B64C8
:1026B0007B6C2F2B0DDD7B6C392B0ADC7A6D131CA8
:1026C0009B009B185B001A1C7B6CD318303B7B650E
:1026D00004E07B6E013B7B660123BB65BB6D002B79
:1026E000DFD006233B657B6E01337B667B6E1B78F8
:1026F0005BB22E2B25D100233B650023BB651CE07C
:102700007B6E01337B667B6E1B785BB27B647B6C7C
:102710002F2B0DDD7B6C392B0ADC3A6D131C9B00D3
:102720009B185B001A1C7B6CD318303B3B6504E0A4
:102730007B6E013B7B660123BB65BB6D002BDFD04D
:1027400002E07B6E013B7B667B6E01337B667B6EBA
:102750001B785BB27B647B6C642B1BD07B6C692B1E
:1027600018D07B6C662B15D07B6C462B12D07B6C03
:10277000782B0FD07B6C582B0CD07B6C6F2B09D037
:102780007B6C622B06D07B6C702B03D07B6C752B23
:1027900000D0ABE07B6C642B02D07B6C692B19D131
:1027A0007B681A1D7A601B687B613A1C1C323B1CDB
:1027B0001433391C4B3109780091101C191C01226B
:1027C0000A23FFF7B9FE031CFB653A1C1C32FB6DA4
:1027D000D3183B667B6C582B02D07B6C782B20D1B6
:1027E0007B6C782B03D13B1C4B3300221A707B6827
:1027F0001A1D7A601B683B613A1C1C323B1C10336B
:10280000391C4B3109780091101C191C002210232F
:10281000FFF792FE031CFB653A1C1C32FB6DD318BC
:102820003B667B6C6F2B08D07B6C622B05D07B6C7E
:10283000702B02D07B6C752B3BD17B681A1D7A60A4
:102840001B683B617B6C6F2B08D002DC622B0AD0CB
:1028500018E0702B0CD0752B0FD013E03B1C4A33C3
:1028600008221A700EE03B1C4A3302221A7009E05B
:102870003B1C4A3310221A7004E03B1C4A330A22E4
:102880001A70C0463B1C4A331B78391C1C313A1C59
:102890001032381C4B3000780090081C111C0022AC
:1028A000FFF74AFE031CFB653A1C1C32FB6DD31874
:1028B0003B667A6DF96D3B1C1833F8680090202058
:1028C000FFF716FE3B6E002B0FD00AE03B6E5A1E40
:1028D0003A661B785AB2FB68101C9847BB690133F3
:1028E000BB613B6E1B78002BF0D143E07B6C632B0C
:1028F0000ED17B681A1D7A601B68DBB25BB23B6449
:102900003A6CFB68101C9847BB690133BB6131E02E
:102910007B6C732B27D17B681A1D7A601B68FB6464
:10292000FB6C002B26D0FB6C181C03F0C4FE031CB0
:10293000FB657A6DF96D3B1C1833F8680090202018
:10294000FFF7D6FD0AE0FB6C5A1CFA641B785AB2FA
:10295000FB68101C9847BB690133BB61FB6C1B789B
:10296000002BF0D106E07A6CFB68101C9847BB691D
:102970000133BB617B6E01337B667B6E1B785BB280
:102980007B647B6C002B00D077E6BB69181CBD46CE
:102990001AB080BD84B090B583B000AF3C1C183431
:1029A00020606160A260E3603B1C1833181C0021AA
:1029B000182203F078FE3B1C18331D221A713B1CB1
:1029C000183301225A713B1C183328229A603B1C91
:1029D000183301221A733B1C18333A6B1A613B1CE3
:1029E000183306225A613B1C183300221A60084A29
:1029F0003B1C1833101C191C02F0CAFC031C7B6022
:102A00007B68181CBD4603B090BC08BC04B01847D6
:102A10000060064090B591B004AFF860B9607A608C
:102A20003B1C10333A1C283202926A46191C1031A2
:102A300011C911C2186859689A68DB68FFF7AAFFC4
:102A40003B1C28331B781A1C3B1C28335B781B0269
:102A5000D218FB681A603B1C28339B781A1C3B1C5D
:102A60002833DB781B02D218BB681A603B1C283362
:102A70001B791A1C3B1C28335B791B02D2187B681C
:102A80001A60BD460DB090BD90B58BB000AFF86038
:102A9000B9607A60514B1A68131C5B009B189B004D
:102AA0004F4A98184D4B1A68131C5B009B189B00EB
:102AB0001A1D4B4BD118494B1A68131C5B009B180D
:102AC0009B001A1C0832464BD3181A1CFFF7A2FFB2
:102AD000424B1B685A1C434B134004D5013B042254
:102AE0005242134301331A1C3C4B1A600023FB6112
:102AF0005FE000237B623B1C1033FA6992000021E7
:102B0000D15000233B620EE035493A6A131C5B004A
:102B10009B18FA699B189B005B587A6AD3187B62F2
:102B20003B6A01333B623B6A032BEDDD7B6A002B82
:102B300000DA03339B107B6200233B6224E03B1CE2
:102B40001033FA699200D15825483A6A131C5B0089
:102B50009B18FA699B189B001A587B6AD01A204C64
:102B60003A6A131C5B009B18FA699B189B001A5960
:102B70007B6AD31A4343C9183B1C1033FA6992008D
:102B8000D1503B6A01333B623B6A032BD7DD3B1CD0
:102B90001033FA699200D358002B00DA03339B10EC
:102BA000191C3B1C1033FA699200D150FB690133A8
:102BB000FB61FB69022B9CDD3B1C10331A68FB6830
:102BC0001A603B1C10335A68BB681A603B1C1033F8
:102BD0009A687B681A60BD460BB090BDA0FEFF1FCF
:102BE000A4FEFF1F0300008080B582B000AF7860B4
:102BF000084A0849084BC958084B19407B68980691
:102C0000C0231B0503401943034BD150BD4602B0FE
:102C100080BDC0460070044004100000FFFFFFF3B9
:102C200080B582B000AF0120FFF7DEFF01F02EFD7E
:102C3000031C7B60054996239A017B68081C111CC4
:102C40000222FFF7A3FBBD4602B080BD0040054055
:102C500080B500AF034A044B80214902D150BD46E4
:102C600080BDC046007004404410000080B500AF35
:102C7000FFF7EEFF064B181C01F01CFE054B181C5D
:102C800001F07CFD044B054A1A60BD4680BDC0467C
:102C90006C6B0000746B000004FEFF1F006CDC0214
:102CA00080B500AF034A044B80214902D150BD4694
:102CB00080BDC046007004404410000080B584B060
:102CC00000AF3A1C08320F4B111C1A1C0623081CBB
:102CD000111C1A1C03F0DEFC3B1C00221A703B1C6A
:102CE000802252025A60FFF7DBFF3B1C0833181C9E
:102CF00001F0E0FD3B1C181C01F040FDBD4604B096
:102D000080BDC046C866000080B584B000AF3A1CE4
:102D100008320F4B111C1A1C0623081C111C1A1C0C
:102D200003F0B8FC3B1C00221A703B1C80225202AC
:102D30005A60FFF7B5FF3B1C0833181C01F0BAFDC1
:102D40003B1C181C01F01AFDBD4604B080BDC046F6
:102D5000D066000080B582B000AF021CFB1D1A7067
:102D6000064BFA1D1278111C1F220A400121081C73
:102D70009040021C1A60BD4602B080BD00E100E038
:102D800080B582B000AF021CFB1D1A70064AFB1D05
:102D90001B78191C1F230B4001219940C0235B00A5
:102DA000D150BD4602B080BD00E100E080B582B0E8
:102DB00000AF786039607B683A685A60BD4602B0FF
:102DC00080BDC04680B582B000AF786039607B6856
:102DD0003A689A60BD4602B080BDC04680B582B0F8
:102DE00000AF78600A1CFB1C1A707B68FA1C127812
:102DF0001A70BD4602B080BD80B582B000AF786069
:102E00007B681B78DBB21A1C7B685B78DBB21B0229
:102E10001343181CBD4602B080BDC04680B582B0C9
:102E200000AF78607B689B78DBB208221343DAB28C
:102E30007B689A70BD4602B080BDC04600000000AD
:102E4000F0B591B000AF8C4B181CFFF7D5FF021CFA
:102E50000123134006D0894B181CFFF7DFFF072022
:102E6000FFF78EFF00F0BAFAFFF700FFFFF7D8FE7A
:102E70003B1C181C02F0ECFC3B1C01225A713B1C51
:102E800001221A717E4A3B1C101C191C02F090FC96
:102E90000720FFF75FFF1C20FFF75CFF794B181C32
:102EA0002221FFF79BFF00F0ADFC774B181C00F0D0
:102EB00013F93B1C0833181C01F0E0FF002001F05F
:102EC000FBFB031C71493A1C0832081C111C1A1C1C
:102ED00001F048FF01F014FB6D4A80235B01101CD8
:102EE000191CFFF76FFF614C5F4BBB63FC63391C20
:102EF0001C313A1C18323B1C1433081C111C1A1CC0
:102F0000FFF7C2FDFA69604B9A4207DCBA695E4B73
:102F10009A4203DC7A695C4B9A4275DD5D4A8023F4
:102F20001B01101C191CFFF74DFF5B4B181C00F018
:102F3000D3F8584A80231B01101C191CFFF736FFD9
:102F4000554B181C00F0C8F8514B181C8021FFF796
:102F500039FF3A1C28323B1C2033101C191C01F08D
:102F6000E3F9B96AFA6A3B6A7C6A081C111C1A1CEC
:102F7000231CFDF7EFFB031C0C1C181C211C3C4AF6
:102F80003C4BFDF709FF031C0C1C3B637C63386B57
:102F9000796BFFF72FF9031C181C00F069F9386BE7
:102FA000796B3A6B7B6BFEF761FB031C0C1C1D1CE1
:102FB000261C3B6B7C6B181C211C03F0B1F9031C15
:102FC0000C1C281C311C1A1C231CFEF74FFB031C75
:102FD0000C1CB86BF96B1A1C231CFDF7BBFB031C04
:102FE0000C1CBB63FC63BB6BFC6B181C211C00F04E
:102FF00007F92A4B181C00F01FFC00F059FC224B6B
:10300000181C00F069F80EE0214B181C8021FFF716
:10301000CDFE234B181C00F00FFC00F049FC1A4BAE
:10302000181C00F059F83A1C28323B1C2033101CA5
:10303000191C01F079F9B96AFA6A3B6A7C6A081CC2
:10304000111C1A1C231CFDF785FB031C0C1C181CEF
:10305000211C074A074BFDF79FFE031C0C1C3B631A
:103060007C6300F029FC42E7000000000000000043
:10307000000000000000004000F0074000D00740C2
:103080000000044000E00740E093040000600640B8
:1030900000F00F4040F00F4030750000B80B00000A
:1030A00070170000C046C04680B582B000AF78609F
:1030B00039607B683A685A60BD4602B080BDC04640
:1030C00080B582B000AF786039607B683A689A60FA
:1030D000BD4602B080BDC04680B582B000AF78600A
:1030E000C0467B685A1E7A60002BFAD1BD4602B0FA
:1030F00080BDC04680B582B000AF00237B6014E085
:103100000D4B181C2021FFF7DBFF0C4B181CFFF7A1
:10311000E3FF094B181C2021FFF7C6FF074B181CC3
:10312000FFF7DAFF7B6801337B607B68F92BE7DD13
:10313000BD4602B080BDC04600F00F403011000017
:1031400080B582B000AF00237B6014E00E4B181CEA
:103150002021FFF7B5FF0D4B181CFFF7BDFF0A4BF1
:10316000181C2021FFF7A0FF084B181CFFF7B4FF25
:103170007B6801337B607A68F423FF339A42E5DD94
:10318000BD4602B080BDC04600F00F404C040000B8
:1031900080B500AF094A80231B01101C191CFFF7E2
:1031A00083FF074B181C8021FFF77EFF034B181C81
:1031B0000121FFF779FFBD4680BDC04640F00F40BA
:1031C00000F00F4080B500AF0A4B181C1021FFF72C
:1031D0006BFF094A80235B01101C191CFFF764FF79
:1031E000044A80239B01101C191CFFF75DFFBD469C
:1031F00080BDC04640F00F4000F00F4000000000CE
:1032000080B582B000AF3860796038687968154B56
:10321000134AFDF795FA031C002B1ED0FFF7D2FFCF
:1032200096235B00181CFFF757FF0F4B181C10214B
:10323000FFF746FFFFF784FF0C4B181CFFF74CFF0E
:10324000FFF77EFF094B181CFFF746FFFFF778FFDB
:10325000054B181C1021FFF727FFBD4602B080BDAB
:103260000000000080A5CD4040F00F4080841E008B
:1032700080B584B000AF78607B680B2B1ADDFFF758
:10328000A1FF1E20FFF728FF344A80239B01101C5A
:10329000191CFFF715FFFFF72DFF314B181CFFF727
:1032A0001BFFFFF727FF2E4B181CFFF715FFFFF73B
:1032B00021FF4FE07B68062B13DDFFF783FF1E2005
:1032C000FFF70AFF254A80239B01101C191CFFF7FA
:1032D000F7FE224B181C1021FFF7F2FEFFF70AFF42
:1032E00038E07B68042B0ADDFFF76CFF1E20FFF738
:1032F000F3FE1A4B181C1021FFF7E2FE2AE07B6850
:10330000012B11DDFFF75EFF1E20FFF7E5FE134BDB
:10331000181C1021FFF7D4FE124A80235B01101CF9
:10332000191CFFF7CDFE15E0FFF74CFF0D4A802377
:103330005B01101C191CFFF7C3FE0023FB6006E0B5
:10334000094B181CFFF7C8FEFB680133FB60FB68E4
:10335000312BF5DDBD4604B080BDC04640F00F40C6
:1033600080841E0000F00F403011000090B585B041
:1033700000AF78607B681B0C084A9B18FB60FB68F9
:10338000FA6811687A681204120C0120041C944037
:10339000221C0A431A60BD4605B090BD007004406F
:1033A00080B584B000AFF860B960FB1D1A70FB688F
:1033B000BA689200D258084B1A40FB1D1B781902BC
:1033C000E023DB000B40111C1943FB68BA68920034
:1033D000D150BD4604B080BDFFF8FFFF80B582B07C
:1033E00000AF5A4B181CFFF7C1FF594B181CFFF7D1
:1033F000BDFF584B181C01210322FFF7D1FF554B8D
:10340000181C0C210122FFF7CBFF524B181C032183
:103410000022FFF7C5FF4F4B181C04210022FFF7C5
:10342000BFFF4C4B181C05210122FFF7B9FF494B88
:10343000181C07210122FFF7B3FF464B181C082177
:103440000222FFF7ADFF434B181C09210222FFF7B0
:10345000A7FF414B181C00210122FFF7A1FF3E4BA3
:10346000181C01210222FFF79BFF3B4B181C0B216C
:103470000122FFF795FF384B181C0D210122FFF7A1
:103480008FFF354B181C02210222FFF789FF324BB8
:10349000181C04210122FFF783FF2F4B181C052164
:1034A0000022FFF77DFF2C4B181C06210122FFF79D
:1034B00077FF294B181C07210122FFF771FF274ACC
:1034C0002649274BCB580421181C8843011C244B48
:1034D000D150244B234A526920210A435A613A1D94
:1034E000214B111C1A1C0223081C111C1A1C03F06E
:1034F000D1F81E4A3B1D101C0B211A1C01F002FBC7
:10350000184A3B1D101C07211A1C01F0FBFA174A30
:103510003B1D101C00211A1C01F0F4FA134A3B1D3C
:10352000101C04211A1C01F0EDFA0E4A3B1D101C60
:103530000C211A1C01F0E6FA0C4A3B1D101C0D214F
:103540001A1C01F0DFFABD4602B080BD0900381038
:103550000A0038100090044000A0044000700440AD
:103560001010000000F00F40D866000040F00F403F
:1035700080B582B000AF021CFB1D1A70064BFA1D0D
:103580001278111C1F220A400121081C9040021CC5
:103590001A60BD4602B080BD00E100E080B582B097
:1035A00000AF021CFB1D1A70064AFB1D1B78191C7C
:1035B0001F230B40012199408023D150BD4602B00A
:1035C00080BDC04600E100E080B582B000AF021CC3
:1035D000FB1D1A70064AFB1D1B78191C1F230B408C
:1035E00001219940C0235B00D150BD4602B080BD8F
:1035F00000E100E0B0B582B000AF021C3960FB1DF5
:103600001A70FB1D1B787F2B32D93049FB1D1B78AC
:103610001A1C0F231340083B98082C4AFB1D1B78EB
:103620001C1C0F232340083B9B0806339B00D31828
:103630005B68FA1D1278141C03222240D200FF247A
:10364000251C95402A1CD2431A403B689C01FF234D
:103650001C40FB1D1B781D1C03232B40DB00251C7D
:103660009D402B1C1A43831D9B00CB185A6029E0F8
:10367000174BFA1D127852B292081549F81D0078BE
:1036800040B28008C03080004158F81D0078041C0A
:1036900003202040C000FF24251C8540281CC04377
:1036A000084039688C01FF210C40F91D09780D1C78
:1036B00003212940C900251C8D40291C0143C0322B
:1036C0009200D150BD4602B0B0BDC04600ED00E052
:1036D00000E100E080B582B000AF78600A1CFB1CFE
:1036E0001A707B68FA1C12781A70BD4602B080BD51
:1036F00080B582B000AF78607B68DB78DBB2181CE5
:10370000BD4602B080BDC04680B584B000AFF86051
:10371000B960FB1D1A70FB68BA689200D258084B5A
:103720001A40FB1D1B781904F0231B030B40111CCE
:103730001943FB68BA689200D150BD4604B080BD01
:10374000FFFFF0FF80B582B000AF786039607B6822
:103750003A685A60BD4602B080BDC04680B582B0AE
:1037600000AF786039607B683A689A60BD4602B005
:1037700080BDC04680B582B000AF786039607B689C
:103780003A68DA60BD4602B080BDC04680B582B0FE
:1037900000AF786039607B681A693B68DA400123C2
:1037A0001340181CBD4602B080BDC04680B500AFB6
:1037B00072B6114B181C01F0E1F9031C0E4A101CE3
:1037C000191C01F0F7F91F20FFF7FEFE0B4B1B68D9
:1037D000002B0ED10A4B181CFFF77EFC064B181C61
:1037E0000721FFF7D3FF031C002B02D1034B01225B
:1037F0001A6062B6BD4680BD40F00F4000FEFF1F5C
:10380000C0C62D0080B500AF094B181C2221FFF760
:1038100061FF084B181C07210A22FFF775FF1F20C4
:103820000021FFF7E7FE1F20FFF7B8FEBD4680BD71
:1038300000E0074000A0044080B582B000AF78608F
:103840007B68181C00F076FA184B181CFFF750FF25
:10385000031C181C432100F07FFA031C0122534073
:10386000DBB2002B00D01DE0104B181CFFF740FF0F
:10387000031C181C462100F01BFB462000F0D4FB63
:103880000A4B181CFFF734FF031C181C462100F0DC
:1038900017FC064B181CFFF72BFF031C181C4621B6
:1038A00000F030FBBD4602B080BDC04600E00740DE
:1038B00080B500AFBD4680BD90B583B000AF00239A
:1038C0007B6098E07A68584B9A4271D9FC1C574B40
:1038D000181CFFF70DFF031C2370FB1C1B78181C22
:1038E000432100F039FA031C01225340DBB2002BC4
:1038F00015D04F4A80231B01101C191CFFF72EFF07
:103900004B4B181C1021FFF729FFFA23DB00181C72
:10391000FFF792FFFFF7CCFF00237B606BE0444A88
:1039200080231B01101C191CFFF70CFF404B181CB7
:103930001021FFF707FF3E4B181C0121FFF702FF84
:10394000472000F043FBFB1C1B78181C462100F0AD
:10395000AFFA1F20FFF738FE1F200021FFF74AFEB5
:10396000334B181C01F00AF9031C314A101C191CB6
:1039700001F020F91F20FFF7FBFD62B62D4B00225E
:103980001A60462000F050FBFB1C1B78181C4621D7
:1039900000F096FBFB1C1B78181C462100F0B2FAC5
:1039A000244B1B68002BCBD01F20FFF7F7FD37E01F
:1039B0007B68002B0BD1FFF7EBFBFFF703FC1C4AE6
:1039C00080231B01101C191CFFF7C8FE0BE0184ACE
:1039D00080231B01101C191CFFF7CCFE144B181C74
:1039E0001021FFF7C7FEFA20FFF726FF7B68FA22B7
:1039F00092009B187B600E4B181C0721FFF7C6FE38
:103A0000031C002B00D15DE7094A80231B01101C19
:103A1000191CFFF797FE064B181C1021FFF792FEAA
:103A2000BD4603B090BDC0461027000000E007402F
:103A300040F00F4000FEFF1F80B582B000AF021CB7
:103A4000FB1D1A70064BFA1D1278111C1F220A402A
:103A50000121081C9040021C1A60BD4602B080BDC6
:103A600000E100E090B585B000AF78607B681B0C8A
:103A7000084A9B18FB60FB68FA6811687A681204B0
:103A8000120C0120041C9440221C0A431A60BD46FB
:103A900005B090BD0070044090B585B000AF78606F
:103AA0007B681B0C094A9B18FB60FB68FA6812686C
:103AB00079680904090C0120041C8C40211CC943AD
:103AC0000A401A60BD4605B090BDC0460070044073
:103AD00080B582B000AF7860084A0849084BC958E1
:103AE000084B19407B689806C0231B050340194307
:103AF000034BD150BD4602B080BDC04600700440AB
:103B000004100000FFFFFFF380B582B000AF7860C3
:103B10007B68DB78DBB2181CBD4602B080BDC046B6
:103B200080B500AF72B6BFF36F8FBD4680BDC04693
:103B300080B500AF62B6BFF36F8FBD4680BDC04693
:103B400080B584B000AF786039607B681B68FB602B
:103B5000FB6880229343FB60FA683B681343FB6079
:103B60007B68FA681A60BD4604B080BD80B584B039
:103B700000AF786039607B681B68FB60FB6880225F
:103B80009343FB603B68DA43FB681340FB607B6850
:103B9000FA681A60BD4604B080BDC04680B582B0E8
:103BA00000AF78607B681A6840231340181CBD463C
:103BB00002B080BD80B582B000AF786039607B68AC
:103BC0001A683B681A437B681A60BD4602B080BD24
:103BD00080B582B000AF786039603B68002B07D1B8
:103BE00007482623191CFF31064A074B00F0F4FE54
:103BF0003B685A1E7B689A60BD4602B080BDC046D5
:103C0000DC660000A06B0000F466000080B584B0A4
:103C100000AF78607B681B68FB60FB688022934381
:103C2000FB60FB6801221343FB607B68FA681A6043
:103C3000BD4604B080BDC04680B584B000AF78609A
:103C40007B681B68FB60FB6880229343FB60FB681A
:103C500001229343FB607B68FA681A60BD4604B09A
:103C600080BDC04680B584B000AFF860B960FB1D70
:103C70001A70FB68BA689200D258084B1A40FB1DB4
:103C80001B781902E023DB000B40111C1943FB6871
:103C9000BA689200D150BD4604B080BDFFF8FFFF66
:103CA00080B584B000AFF860B960FB1D1A70FB6886
:103CB000BA689200D258084B1A40FB1D1B781904B1
:103CC000F0231B030B40111C1943FB68BA689200D8
:103CD000D150BD4604B080BDFFFFF0FF80B582B07B
:103CE00000AF786039607A68A0233968D150BD464A
:103CF00002B080BD80B500AF0C4B181C042101F050
:103D0000CDFC031C002B0FD0094B181C07210022EF
:103D1000FFF7C6FF064B181C8021FFF7DFFF034BA0
:103D2000181C042101F0E0FCBD4680BD00C0074026
:103D300000A0044080B582B000AF7860044B7A6880
:103D40001A60044B00221A70BD4602B080BDC04606
:103D5000D4FEFF1FD8FEFF1F80B584B000AF0A1C41
:103D6000FB1D011C1970BB1D1A703B1C0F33012277
:103D70001A70FB1D1B78012B02D0042B0ED01FE004
:103D8000BB1D1B78452B08D1244B181CFEF770FB7C
:103D90003B1C0F3300221A701BE01AE0BB1D1B787E
:103DA000422B03D0BB1D1B78432B08D11C4B181C86
:103DB000FEF75EFB3B1C0F3300221A7009E008E09F
:103DC000184B181CFEF754FB3B1C0F3300221A70D3
:103DD000C0463B1C0F331B7801225340DBB2002B43
:103DE00001D0002316E0BB1D1B78412B03D1FB1D26
:103DF0001B78012B07D0BB1D1B78442B09D1FB1D61
:103E00001B78042B05D1084B181CFEF731FB00234F
:103E100000E00123181CBD4604B080BD006700000F
:103E20002C670000646700007C67000080B582B0EA
:103E300000AF0120FFF74CFE092000F03DFC031C01
:103E40007B600B4996239A017B68081C111C022297
:103E5000FEF79CFA074B181CFFF704FE064B0022E6
:103E6000DA61044B181CFFF717FEBD4602B080BD97
:103E7000004005401D003C1000D0034080B582B0DA
:103E800000AF0320FFF724FE072000F015FC031C01
:103E90007B60064996239A017B68081C111C02224C
:103EA000FEF774FABD4602B080BDC0460040054032
:103EB00080B582B000AF0A1CFB1D011C1970BB1D30
:103EC0001A70C0460D4B181C01F0FCFE021C80232A
:103ED000DB031340F6D0FEF7A5FABB1D1B78412B80
:103EE00009D0BB1D1B78442B05D0054B181C0121A4
:103EF0000022FFF7B7FEBD4602B080BD004005407E
:103F000000A0044090B585B000AF0A1CFB1D011C49
:103F10001970BB1D1A703C1C0F34164B181CFFF790
:103F2000F3FD031C2370FB1D1B78042B06D13B1CE7
:103F30000F331B78012B01D1FEF7C0FEBB1D1B7890
:103F4000412B09D0BB1D1B78442B05D00A4B181CF4
:103F500001210222FFF786FE3B1C0F331B78042B46
:103F600002D1FFF78BFF01E0FFF760FFBD4605B010
:103F700090BDC04600E0074000A0044080B500AFFF
:103F80000B4B181CFFF70AFE021C402313400DD0F8
:103F9000074B181C4021FFF7E9FD054B181C802139
:103FA000FFF708FE024B181CFFF746FEBD4680BD1A
:103FB0000000044080B500AF0523181CBD4680BD3D
:103FC00080B500AF0023181CBD4680BD80B582B00F
:103FD00000AF021CFB1D1A70FB1D1B78472B07D07E
:103FE000FB1D1B78482B03D0FB1D1B78492B03D1ED
:103FF0000B4B01221A7005E0FFF7E2FF031C1A1CAD
:10400000074B1A70064B1B78002B05D1FFF7D2FF28
:10401000031C1A1C034B1A60BD4602B080BDC0468B
:10402000D8FEFF1FD4FEFF1F80B582B000AF021C78
:10403000FB1D1A701D4B1B78002B0BD11C4B1B68F2
:10404000013B1C4A101C191CFFF7C2FD194B181C20
:10405000FFF7DCFD154B1B78002B05D1154B181C09
:104060004021FFF76DFD05E0134B181C07210A22C4
:10407000FFF716FEFB1D1B78422B14D0FB1D1B788F
:10408000452B10D0FB1D1B78462B0CD0FB1D1B783D
:10409000432B08D0094B181C0421022201F0ACFA72
:1040A0000720FFF7C9FCBD4602B080BDD8FEFF1F48
:1040B000D4FEFF1F0000044000A0044000C00740E1
:1040C00080B584B000AF0A1CFB1D011C1970BB1D1C
:1040D0001A703B1C0C3301225A703B1C0C3301221A
:1040E0009A70BB1D1B78413B082B00D97CE09A00DD
:1040F000414BD3181B689F46FEF706FE3F4B181C2A
:1041000001F0A8FFC0463D4B181CFFF7FDFC031C47
:10411000042BF8D16DE0394B181C01F007FFC046A5
:10412000364B181CFFF7F0FC031C012BF8D1FB1DCC
:104130001B78042B02D1FEF7C1FD5AE059E0FFF7CE
:10414000EFFC2E4B181C01F013FFFFF7F1FC50E0C1
:1041500001F0BEFE294B181C002101F01FFF01F0E9
:10416000D1FE46E0FFF7DCFC244B181C01F096FF63
:10417000FFF7DEFC3DE001F0ABFE204B181C01F028
:10418000A3FF01F0BFFE34E03B1C0C3300221A7089
:1041900001F09EFE194A3B1C0C33101C191C01F047
:1041A000D1FF01F0AFFE24E03B1C0C3301221A705A
:1041B00001F08EFE114A3B1C0C33101C191C01F03F
:1041C000C1FF01F09FFE14E03B1C0C3303221A7068
:1041D00001F07EFE094A3B1C0C33101C191C01F037
:1041E000B1FF01F08FFE04E0054B181CFEF740F90B
:1041F000C046BD4604B080BD7C6B000000E00740B7
:10420000A067000084B090B583B000AF3C1C1834A8
:1042100020606160A260E3603B1C1833181C002121
:10422000182202F040FA3B1C183310221A713B1C72
:10423000183300225A713B1C183300229A603B1C31
:10424000183301221A733B1C18333A6B1A613B1C5A
:10425000183302225A613B1C183300221A60084AA4
:104260003B1C1833101C191C01F092F8031C7B60D6
:104270007B68181CBD4603B090BC08BC04B018474E
:104280000060064084B090B583B000AF3C1C183489
:1042900020606160A260E3603B1C1833181C0021A1
:1042A000182202F000FA3B1C183310221A713B1C32
:1042B000183301225A713B1C18333A6B9A603B1C2D
:1042C000183301221A733B1C18333A1C1A613B1C29
:1042D000183302225A613B1C183300221A60104A1C
:1042E0003B1C1833101C191C01F052F8031C7B6096
:1042F0003B1C1B781A1C3B1C5B781B02D318181C38
:10430000FDF7ACFF031C0C1C7A6B136054607B68D8
:10431000181CBD4603B090BC08BC04B01847C0468A
:104320000060064000000000F0B5A5B004AF786062
:104330003960684C664BBB67FC67674B674C3B67F3
:104340007C67674B674CBB66FC66674B674C3B669C
:104350007C66674B674CBB65FC65674B674C3B6590
:104360007C653B1C2833072202923A1C20320392C0
:104370006A46191C103111C911C2186859689A6827
:10438000DB68FFF77FFF3B1C2833092202923A1CAF
:10439000183203926A46191C103111C911C21868EB
:1043A00059689A68DB68FFF76DFF3B1C28330A22C7
:1043B00002923A1C103203926A46191C103111C93C
:1043C00011C2186859689A68DB68FFF75BFF3B1CED
:1043D00028330B2202923A1C083203926A46191CB7
:1043E000103111C911C2186859689A68DB68FFF763
:1043F00049FF3D6A7E6A3B697C69181C211CBA6FC3
:10440000FB6FFDF733F9031C0C1C281C311C1A1C14
:10441000231CFDF7BBFB031C0C1C1D1C261CBB68CE
:10442000FC68181C211C3A6F7B6FFDF71FF9031CF9
:104430000C1C281C311C1A1C231CFDF7A7FB031C99
:104440000C1CBB64FC64BD69FE693B697C69181C7B
:10445000211CBA6EFB6EFDF709F9031C0C1C281C0D
:10446000311C1A1C231CFDF791FB031C0C1C1D1C8A
:10447000261CBB68FC68181C211C3A6E7B6EFDF77D
:10448000F5F8031C0C1C281C311C1A1C231CFDF7FE
:104490007DFB031C0C1C3B647C64B86CF96CBA6D2E
:1044A000FB6DFDF7E3F8031C0C1C7A681360546085
:1044B000386C796C3A6D7B6DFDF7D8F8031C0C1CD9
:1044C0003A6813605460BD4621B0F0BDC046C04696
:1044D000C3F5285C8FC2014048E17A14AE47F53F2E
:1044E0009A99999999990740D7A3703D0AD7FB3FAC
:1044F0002E910BCEE0EF573FE9297288B839653F1E
:1045000090B58FB004AF3B1C183304221A703B1CCB
:10451000183300225A703B1C3A1C183202926A4629
:10452000191C103111C911C2186859689A68DB68E2
:10453000FFF768FE031C7B627B6A002BEBD1BD4654
:104540000BB090BD80B582B000AF7860074B074AD2
:104550001168074A11407A689004C0221203024091
:104560000A431A60BD4602B080BDC04600700440D8
:10457000FFFFF3FF80B500AF0E4B1B78DBB21A1CB8
:104580000223134008D10B4B9B79DBB21A1C0C237E
:1045900013409B08012B09D1064B5B78DBB21A1C38
:1045A00001231A40044B9200D35800E00023181C4A
:1045B000BD4680BD00400640E86B000080B500AFFE
:1045C0000C4B1B78DBB2DBB25BB2002B0DDA0A4B73
:1045D0001B68002B06D10949094A0A4B081C6621B1
:1045E00000F0FAF9044B1B6800E00023181CBD46DC
:1045F00080BDC0460050064000FFFF1FAC670000B2
:10460000F06B0000C467000080B582B000AF1A4BA9
:104610001A68C0231B0313409B0C022B10D0032BE2
:104620001DD0002B1FD1FFF7C9FF021C80231B02E6
:104630009A4202D180231B0200E000237B6015E038
:104640000E4B1B68002B06D10D490E4A0E4B081C61
:104650007A2100F0C1F9094B1B687B6006E0FA2360
:104660009B007B6002E000237B60C0467B68181CD7
:10467000BD4602B080BDC04600700440FCFEFF1F76
:10468000AC670000086C0000D067000080B500AF88
:1046900000F0CAF8021C0649064BCB581B0F013329
:1046A000101C191CFBF768FF031C181CBD4680BDBD
:1046B000007004404410000080B584B000AF021CBC
:1046C000FB1D1A70FB1D1B780B2B48D89A00284B3A
:1046D000D3181B689F4600F0A7F8021C2549264BFB
:1046E000CB581B0F0133101C191CFBF745FF031C93
:1046F000FB6037E000F098F8021C1E491E4BCB58B7
:104700001B0F0133101C191CFBF736FF031CFB6049
:10471000184A194BD258E023DB0213401B0C01331B
:10472000F868191CFBF728FF031CFB601AE0FFF771
:104730006BFF031CFB6015E0FFF740FF031CFB60F1
:1047400010E000F031F8031CFB600BE000F050F8C3
:10475000031CFB6006E0FA239B00FB6002E00023E1
:10476000FB60C046FB68181CBD4604B080BDC04657
:10477000B86B0000007004404410000080B582B0A7
:1047800000AF7860064A7B685968064BD1507B6859
:104790001B78181CFFF7D6FEBD4602B080BDC04690
:1047A000007004404410000080B582B000AF0F4B91
:1047B0001B7ADBB21A1C0E2313405A08FB1D1A7019
:1047C0000A4B1B7ED9B2BB1D07220A401A70FFF7A5
:1047D000D1FE021CFB1D1978BB1D1B78CB18111CC8
:1047E000D9400B1C181CBD4602B080BD00400640DD
:1047F00080B500AF0A4B1B7EDBB2DBB25BB2002B95
:1048000007DB074B9B79DBB21A1C0C2313409B0878
:1048100001D1044B00E00023181CBD4680BDC046FA
:1048200000400640006CDC0280B582B000AF1B4B3C
:104830009B79DBB21A1C0C2313409B08012B06D07A
:1048400002D3022B12D020E0154B7B6020E0FFF753
:1048500091FE021C114B1B7ADBB2191C0E230B407C
:104860005B08111CD9400B1C7B6011E00D4B1B68D1
:10487000002B06D10C490D4A0D4B081CF52100F008
:10488000ABF8084B1B687B6002E000237B60C046EE
:104890007B68181CBD4602B080BDC0460040064083
:1048A000006CDC0200FFFF1FAC670000206C000002
:1048B000C467000080B582B000AF78607B68002BD1
:1048C00006D1414890235900404A414B00F084F8FA
:1048D000404B9B79DBB21A1C0C2313409B08012B25
:1048E0001ED17B681B78012B1AD13A4B5B78DBB267
:1048F0001A1C01231A407B689B789A4210D0354BD2
:10490000344A1278D1B23F220A40D2B21A70C0465D
:10491000304B9B79DBB21A1C0C2313409B08F7D158
:104920002C4A7B68DB78DB18D9B20E230B40DBB254
:104930001372284B7A685279D201D1B27A68107911
:1049400007220240D2B20A43D2B21A76214B214A40
:104950005278D2B201218A43D1B27A68907801228A
:104960000240D2B20A43D2B25A701A4B7A68127815
:104970009201D1B27A6852780A43D2B21A70154BBA
:104980005B78DBB21A1C042313400BD07B681B78C6
:10499000022B07D1C0460F4B9B79DBB21A1C0223B6
:1049A0001340F8D0C0467B681B781A1C094B9B79D2
:1049B000DBB2191C0C230B409B089A42F3D1002355
:1049C000181CBD4602B080BDAC670000346C00000E
:1049D000E06700000040064090B587B002AFF86085
:1049E000B9607A603B6005483968FA68BB687C68E2
:1049F0000094FDF73DFD00BEFDE7C046F0670000F6
:104A000080B584B000AF7860184BFB607B681B7882
:104A1000012B0DD17B685B78002B01D1782320E03E
:104A2000FB681B68802212021A43FB681A6017E0B9
:104A3000FB681A680E4B1A40FB681A607B685B784B
:104A4000002B07D1FB681B688022D2011A43FB6848
:104A50001A6005E0FB681A68064B1A40FB681A608A
:104A60000023181CBD4604B080BDC0460C3000F0C9
:104A7000FF7FFFFFFFBFFFFF80B584B000AFF8608E
:104A8000B960FB1D1A70FB1D1B78002B05D1BB689C
:104A900001229A40FB689A6004E0BB6801229A40B8
:104AA000FB685A60BD4604B080BDC04680B584B086
:104AB00000AF78600023FB600AE00E4BFA689200BA
:104AC000D2587B689A4200D105E0FB680133FB6055
:104AD000FB68012BF1D9FB68012B06D90649074A6F
:104AE000074B081C4421FFF777FFFB68181CBD46E5
:104AF00004B080BD546C0000306800005C6C0000A5
:104B00004868000080B584B000AFF860B9607A6092
:104B10007B68002B06D11649164A174B081C4B21FF
:104B2000FFF75AFF7B681B78002B0BD1FB685B6992
:104B3000BA680121081C9040021CD2431A40FB684D
:104B40005A6112E07B685B78F968BA68081C111C2E
:104B50001A1CFFF791FFFB685A69BB680121081C0A
:104B60009840031C1A43FB685A61BD4604B080BDDF
:104B700030680000706C00006C68000080B584B084
:104B800000AF78607B68181CFFF790FF021C3B1C8D
:104B90000F331A703B1C0F331A78054B9200D35811
:104BA000BB60BA68A023D358181CBD4604B080BDB2
:104BB0004C6C000080B584B000AF786039607B68D1
:104BC000181CFFF773FF021C3B1C0F331A703B1CB1
:104BD0000F331A78054B9200D358BB60BA68A023F4
:104BE0003968D150BD4604B080BDC0464C6C000051
:104BF00090B585B000AF78607B681B0C084A9B18A5
:104C0000FB60FB68FA6811687A681204120C0120D4
:104C1000041C9440221C0A431A60BD4605B090BD96
:104C20000070044080B582B000AF786039603A68A7
:104C300080235B01134009D07B689B79DAB23B6823
:104C40001B0ADBB21343DAB27B689A713A6880239D
:104C5000DB01134009D07B689B79DAB23B681B0A01
:104C6000DBB21343DAB27B689A713B68DAB27B68D5
:104C7000DA70BD4602B080BD80B584B000AF786008
:104C80000023FB6007E00D4A7B689A4200D105E0F3
:104C9000FB680133FB60FB68002BF4D0FB68002B42
:104CA00006D00749074A084B081CB521FFF794FEB8
:104CB000FB68181CBD4604B080BDC04600600640BD
:104CC00098680000006D0000B068000080B584B0F6
:104CD00000AF786039600023FB603A68102313400E
:104CE00005D07B681022DA70064BFB6005E03A685D
:104CF0000123134001D0044BFB60FB68181CBD4628
:104D000004B080BD4F0400004E04000080B582B0A6
:104D100000AF786039607B68DB78DBB21A1C102347
:104D2000134006D17B689B78DBB21A1C202313400A
:104D300007D00A4B1B6879683A68081C111C984711
:104D400006E0074B1B6879683A68081C111C9847F5
:104D5000BFF34F8FBD4602B080BDC046E0FEFF1FCF
:104D6000E4FEFF1F80B586B000AFF860B9607A60DE
:104D7000BB68002B02D07B68002B06D13A48ED239C
:104D800059003A4A3A4BFFF727FEFB68181CFFF719
:104D900073FF384B181CFFF72BFFFB6800221A70BB
:104DA000FB6800225A70FB6800229A70FB68FF22A1
:104DB000DA70FB6800225A71FB6850229A71FB6816
:104DC0000022DA71FB689B78DAB27F231340DAB2F3
:104DD000FB689A70FA68284B101C191CFFF722FF19
:104DE000BB685A68F9687B68081C111C1A1C00F023
:104DF0006BF83B1C1733FA6892791A703B1C173317
:104E00003A1C173211787F220A401A70BB685B780F
:104E1000DB01D9B23B1C17333A1C173212780A4314
:104E20001A703B1C17333A1C173212780F218A4331
:104E30001A70BB681A7A0F231340D9B23B1C173380
:104E40003A1C173212780A431A70FB683A1C173260
:104E500012789A71BB681B78DB01DAB2FB689A7032
:104E6000BD4606B080BDC04698680000106D0000C9
:104E7000D4680000060034101250000080B582B0E3
:104E800000AF78607B68002B05D10A480A490B4ABD
:104E90000B4BFFF7A1FD7B680A4A5A607B68002232
:104EA0005A707B6800221A727B6801221A70BD4614
:104EB00002B080BD9868000023020000206D000051
:104EC000F0680000A086010080B58CB000AFF860EB
:104ED000B9607A6001235B42FB620023BB6200235E
:104EE0007B623B1C233300221A704BE03B1C2333B4
:104EF0001B780122111C99400B1CFB613B1C2233C7
:104F000000221A7032E03B1C22331A78294B5200DF
:104F1000D35AFA6953437868191CFBF72DFB031C1D
:104F2000BB61BA68BB699A4203D9BA68BB69D31A34
:104F300002E0BA69BB68D31A7B617A69FB6A9A425C
:104F40000DD23B1C23331B78BB623B1C22331B78E6
:104F50007B627B69FB627B69002B00D10BE03B1C11
:104F600022333A1C2232127801321A703B1C22334F
:104F70001B783F2BC7D93B1C23333A1C23321278B2
:104F800001321A703B1C23331B78022B02D8FB6AB8
:104F9000002BABD1BB6ADBB29B01DAB27B6AD9B220
:104FA0003F230B40DBB21343DAB2FB685A70BD46B5
:104FB0000CB080BD806C000080B584B000AF78601C
:104FC000FB1C1970BB1C1A700023FB607B68181C4B
:104FD00000F0CAF8031CBB60BA682023134002D05B
:104FE000134BFB601EE07B689B78DBB230221343DF
:104FF000DAB27B689A70C0467B681B7BDBB21A1CF6
:1050000001231340F8D0FB1C1B78DB18DAB2BB1C61
:105010001B78012B01D1012300E000231343DAB2F6
:105020007B681A71FB68181CBD4604B080BDC04681
:105030004C04000080B586B000AF7860FB1C19708E
:10504000BB1C1A7000237B617B68181C00F08CF875
:10505000031CFB603B1C133306221A70FA682023E2
:10506000134009D07B689B78DBB21A1C20231340C5
:1050700002D1224B7B613BE03B1C0B337A685278B8
:105080001A703B1C0B331A783F231340DAB27B684B
:105090005A707B689B78DBB214221343DAB27B68C8
:1050A0009A707B683A1C0B3212785A7000E0C04646
:1050B0003B1C13331B783A1C1332591E1170002B02
:1050C000F5D1C0467B681B7BDBB21A1C0123134061
:1050D000F8D0FB1C1B78DB18DAB2BB1C1B78012B49
:1050E00001D1012300E000231343DAB27B681A7177
:1050F0007B69181CBD4606B080BDC0464C0400004C
:1051000080B584B000AF78600023FB603B1C0A339D
:10511000012252421A807B689B78DBB2382293438B
:10512000DAB27B689A70C0467B68DB78DBB21A1C07
:10513000202313400BD03B1C0A333A1C0A3212883E
:10514000013A1A803B1C0A331B88002BECD13B1C14
:105150000A331B88002B02D18A23DB00FB60FB682B
:10516000181CBD4604B080BD80B584B000AF786027
:105170007B68DB78DBB2FB607B689B79DBB21A1C57
:105180004023134004D0FB688022D2011343FB600C
:105190007B689B79DBB21A1C1023134004D0FB6898
:1051A000802252011343FB60FB68181CBD4604B00B
:1051B00080BDC04680B586B000AFF860B9607A6047
:1051C0003B6000237B613B1C133300221A70C046F6
:1051D000FB68DB78DBB2DBB25BB2002BF8DAFB6892
:1051E0000222DA70FB689B78DBB210221343DAB23A
:1051F000FB689A7032E0BB685A1CBA601A78FB6888
:105200001A71C046FB68DB78DBB21A1C022313401C
:10521000F8D03B1C1333FA68D2781A70FB6802226C
:10522000DA703B1C13331A781023134004D0FB6848
:105230001022DA70184B7B613B1C13331A78012360
:10524000134007D07B68002B04D0FB680122DA7082
:10525000124B7B617B69002B00D004E07B685A1EF7
:105260007A60002BC7D17B69002B03D13A680423F5
:10527000134003D07A69094B9A4208D1FB68022295
:10528000DA70FB68181CFFF73BFF031C7B617B692E
:10529000181CBD4606B080BD4F0400004E0400003F
:1052A00080B586B000AFF860B9607A603B600023DB
:1052B0007B613B1C133300221A703B1C13331B7899
:1052C000DBB20133DAB23B1C13331A70C046FB6801
:1052D000DB78DBB2DBB25BB2002BF8DAFB680222D0
:1052E000DA70FB689B78DBB218229343DAB2FB6872
:1052F0009A707B68012B07D1FB689B78DBB2082290
:105300001343DAB2FB689A70FB681B79DAB23B1C74
:1053100013331A7032E0C046FB68DB78DBB21A1C2C
:1053200002231340F8D0FB680222DA707B68002B5E
:1053300012D13A680423134006D1FB68181CFFF70A
:10534000DFFE031C7B6107E0FB689B78DBB2102269
:105350001343DAB2FB689A707B68012B07D1FB68B4
:105360009B78DBB208221343DAB2FB689A70BB6801
:105370005A1CBA60FA681279D2B21A707B685A1E47
:105380007A60002BC7D17B69181CBD4606B080BD72
:1053900080B584B000AF786039603B68002B05D1E0
:1053A00086488749874A884BFFF716FB3B1C0F331B
:1053B0003A6852791A700023BB607A68834B101CDC
:1053C000191CFFF72FFCC0467B68DB78DBB2DBB231
:1053D0005BB2002BF8DA3B681B7B002B07D03B68E5
:1053E0005B79012B03D13B1C0F3300221A703B6801
:1053F0001A68022313400DD03B681A7979683B1C68
:105400000F331B78081C111C1A1CFFF713FE031C1A
:10541000BB600CE03B681A7979683B1C0F331B7842
:10542000081C111C1A1CFFF7C7FD031CBB60BB68DE
:10543000002B01D0BB68BDE0C0467B68DB78DBB2E7
:105440001A1C02231340F8D07B68DB78DBB27A6841
:10545000101C191CFFF73AFC031CBB60BB68002B37
:105460000BD0BA685A4B9A4205D15A4BBB607B6845
:10547000181CFFF745FEBB689CE03B681B7B002BBC
:1054800000D170E07B680222DA703B681B7B013B35
:10549000DAB23B681A733B689A683B681B7BDB0097
:1054A000111CD9400B1CDAB27B681A71C0467B68AC
:1054B000DB78DBB21A1C02231340F8D07B68DB7860
:1054C000DBB27A68101C191CFFF700FC031CBB60E0
:1054D000BB68002B09D0BA683D4B9A4203D17B6868
:1054E000181CFFF70DFEBB6864E03B681B7B002BBC
:1054F00002D0BB68002BC5D03B685B79012B32D151
:105500007B680222DA703B681B797A68101C191CD0
:105510000122FFF78FFD031CBB60BB68002B01D08D
:10552000BB6847E0C0467B68DB78DBB21A1C02230D
:105530001340F8D07B68DB78DBB27A68101C191C4A
:10554000FFF7C4FB031CBB60BB68002B0BD0BA6821
:105550001F4B9A4205D11F4BBB607B68181CFFF79D
:10556000CFFDBB6826E03B685B79002B0ED13B6822
:105570005B69002B0AD03B6819693B685A693B6834
:105580001B687868FFF716FE031CBB603B685B79FD
:10559000012B0ED13B685B69002B0AD03B6819696F
:1055A0003B685A693B681B687868FFF779FE031C03
:1055B000BB60BB68181CBD4604B080BD9868000085
:1055C000950300003C6D00000069000012500000CF
:1055D0004E0400005104000080B500AF044B1B686E
:1055E000044A101C191CFFF791FBBD4680BDC04644
:1055F000DCFEFF1F0060064080B586B000AFF8609B
:10560000B960FB1D1A70BB689B0802D0012B03D048
:1056100006E0FB687B6106E0FB6801337B6102E02A
:1056200000237B61C0467B69002B33D03B1C1333C6
:105630007A6912781A70BB68DAB203231340DBB2BE
:105640003A1C1232DB1813703B1C12331B780322F6
:10565000111C99400B1CDBB2DB43DAB23B1C133349
:10566000391C133109780A401A70FB1D1A783B1C4B
:1056700012331B78111C99400B1CD9B23B1C1333FD
:105680003A1C133212780A431A707B693A1C13329F
:1056900012781A70BD4606B080BDC04680B584B091
:1056A00000AF786039603B68DB0803D17B68033367
:1056B000FB6002E00023FB60C046FB68002B0DD0BE
:1056C000FB681B78DBB21A1C396807230B40DA40F1
:1056D000012313405A1E9341DBB200E00023181C43
:1056E000BD4604B080BDC04680B584B000AF7860D0
:1056F00039603B68DB0803D17B680333FB6002E061
:105700000023FB60C046FB68002B09D03A680723E2
:1057100013400122111C99400B1CDAB2FB681A706D
:10572000BD4604B080BDC04690B585B000AF78607E
:105730007B681B0C084A9B18FB60FB68FA681168C1
:105740007A681204120C0120041C9440221C0A43A3
:105750001A60BD4605B090BD0070044080B584B0AD
:1057600000AF78600023FB6007E00D4A7B689A4237
:1057700000D105E0FB680133FB60FB68002BF4D02F
:10578000FB68002B06D00749074A084B081C4E212E
:10579000FFF722F9FB68181CBD4604B080BDC04667
:1057A0000000044060690000586D00007869000046
:1057B00080B584B000AF786039603B68002B06D1BB
:1057C0001F49204A204B081C5521FFF705F97B682B
:1057D000181CFFF7C3FF031CFB601C4B181CFFF7D2
:1057E000A3FF3B681B785A0002231A403B68DB7812
:1057F000990004230B401A433B689B78D900082387
:105800000B401A433B685B78190130230B401A4365
:105810007B681A603B689B79DA0078231A403B6802
:105820001B79990004230B401A433B685B79191CD0
:1058300003230B401A437B685A60BD4604B080BD09
:10584000606900006C6D00009C6900000000381069
:1058500080B582B000AF78607B68002B06D10F491D
:105860000F4A104B081C7F21FFF7B6F87B68002217
:105870001A707B6800225A707B6800229A707B68DD
:105880000022DA707B6801221A717B6801225A714A
:105890007B6800229A71BD4602B080BD606900003D
:1058A000786D00009C69000090B585B000AF78600D
:1058B0007B681B0C084A9B18FB60FB68FA68116840
:1058C0007A681204120C0120041C9440221C0A4322
:1058D0001A60BD4605B090BD0070044090B585B01B
:1058E00000AF78607B681B0C094A9B18FB60FB6863
:1058F000FA68126879680904090C0120041C8C40BC
:10590000211CC9430A401A60BD4605B090BDC0467F
:105910000070044080B584B000AF78600023FB6065
:1059200007E00D4A7B689A4200D105E0FB6801332D
:10593000FB60FB68002BF4D0FB68002B06D0074906
:10594000074A084B081C9421FFF746F8FB68181C0F
:10595000BD4604B080BDC04600400540A4690000BB
:10596000906D0000BC69000090B58DB000AFF8608C
:10597000B9607A60BB68002B06D19749974A984B6B
:10598000081CEB21FFF728F8BB681B68002B06D129
:105990009149924A934B081CEC21FFF71DF8BB6814
:1059A0001B68BB6100237B623B1C2A3300221A80E8
:1059B00004233B625DE0BB681B683A6A5343786826
:1059C000191CFAF7D9FD031C1A1C3B1C28331A803A
:1059D0003B1C28331B88002B03D13B1C283301229E
:1059E0001A803B1C28331B883A6A53437868191C79
:1059F000FAF7C2FD031C7B61BB681B687A69D31A86
:105A0000FB61BB681C683B1C28331B8801333A6A66
:105A100053437868191CFAF7AFFD031CE21AFB69BF
:105A20009A4215D2BB681C683B1C28331B88013383
:105A30003A6A53437868191CFAF79EFD031CE31A6F
:105A4000FB613B1C28331A883B1C283301321A8027
:105A5000FA69BB699A4209D8FB69BB613B6A7B6200
:105A60003B1C2A333A1C283212881A803B6A0133C5
:105A70003B623B6A202B9ED9BB681B68181C6421C3
:105A8000FAF77AFD031C1A1C131C5B009A18BB69F9
:105A90009A4201D2544B9AE0FB68181CFFF73AFF78
:105AA000031C3B61514B181CFFF7FEFEFB689A6814
:105AB0004F4B1A40FB689A60FB681B68FB627B6A6D
:105AC000032B07D97B6A072B04D8FB6A802292023A
:105AD0001343FB62FA6A474B1340FB627B6A013B4C
:105AE0001A06F8235B051340FA6A1343FB62FB6A4C
:105AF0005B0B5B03FB623B1C2A331B88DB04DA0C69
:105B0000FB6A1A43FB681A60FB681A683A4B1A4032
:105B1000FB681A60FB689B6813229343FB62BB68B7
:105B20001B79FA6A1343FB62BB681B79002B03D015
:105B3000FB6A10221343FB62FB68FA6A9A60FB68F7
:105B40001A682E4B1340FB62BB68DB795A03802333
:105B50009B011A40FB6A1A43FB681A60284BFB62E0
:105B6000FB6A802212061343FB62FB6AC022120208
:105B70001343FB62BB689B79002B05D0FB6A802234
:105B800092051343FB6203E0FA6A1B4B1340FB626E
:105B9000FB685A68FB6A1A43FB685A60FB689B689B
:105BA000FB62BB681B7A002B04D0FB6A80221203C5
:105BB0001343FB62BB685B7A002B04D0FB6A802234
:105BC000D2021343FB62FB68FA6A9A600023181C36
:105BD000BD460DB090BDC046A4690000A46D000094
:105BE000F4690000FC690000210500001400381071
:105BF000FFFFF3FFFFFFFFE0FFFFFFDFFFDFFFFF20
:105C000000001F4080B584B000AF7860C0467B685C
:105C10005A688023DB031340F9D0114BFB60FB680B
:105C2000802212061343FB60FB68C022120213435A
:105C3000FB607B685A68FB681A437B685A607B6824
:105C400000229A607B68181CFFF764FE031CBB608F
:105C5000044B181CFFF742FEBD4604B080BDC04691
:105C600000001F401400381080B582B000AF78608B
:105C70007B68002B07D11048D023191CFF310F4A35
:105C80000F4BFEF7A9FE7B68E12252021A607B6887
:105C900000221A717B6800225A717B6800229A7177
:105CA0007B680022DA717B6800221A727B6800220E
:105CB0005A72BD4602B080BDA4690000B06D0000FC
:105CC000F469000080B584B000AF78607B685B68E1
:105CD000FB60FB68181CBD4604B080BD80B584B075
:105CE00000AF786039607B685B68BB60BB685B0055
:105CF0005B08BB603B68DB0FDB07BA681343BB6024
:105D0000BA68144B1340BB603A68134B1340BA682F
:105D10001343BB60BA68114B1340BB603A68C023A1
:105D20001B021340BA681343BB607B68BA685A60B1
:105D30007B68181CFFF7C6FF031C3A68134002D0AB
:105D4000074BFB6001E00023FB60FB68181CBD46AD
:105D500004B080BDFFFFE0BF00001F40FF3FFFFF1A
:105D60001A05000080B584B000AFF860B9607A60B1
:105D7000BB68002B05D10E480E490F4A0F4BFEF7AA
:105D80002BFE0DE0C046FB685A6880231B041340BD
:105D9000F9D0BB685A1CBA601B781A1CFB68DA6021
:105DA0007B685A1E7A60002BECD1BD4604B080BDE2
:105DB000A46900008E020000C86D0000EC690000BC
:105DC00080B586B000AFF860B9607A60BB68002B20
:105DD00005D12F482F49304A304BFEF7FDFD4CE0EE
:105DE0003EE0FB68181CFFF76DFF031C7B617A69BE
:105DF00080231B03134008D0FA6880231B03101C68
:105E0000191CFFF76BFF264B3DE07A698023DB020C
:105E1000134008D0FA688023DB02101C191CFFF71E
