:1000000000060020E9040000350500003905000065
:1000100000000000000000000000000000000000E0
:100020000000000000000000000000003D0500008E
:100030000000000000000000410500004505000030
:1000400031050000310500003105000031050000D8
:10005000310500003105000031050000911B000052
:1000600049050000310500004D0500003105000084
:100070005105000031050000310500003105000088
:100080003105000031050000310500003105000098
:100090003105000031050000310500003105000088
:1000A0003105000031050000310500003105000078
:1000B000191E000031050000310500004516000042
:10040000FFFFFFFFFFFFFFFFFFFFFFFFFE3DFFFFBF
:1004100010B5064C2378002B07D1054B002B02D0DA
:10042000044800E000BF0123237010BD6CFEFF1FD5
:1004300000000000B446000008B5084B002B03D0B4
:100440000748084900E000BF07480368002B03D0B5
:10045000064B002B00D0984708BDC04600000000A6
:10046000B446000070FEFF1F68FEFF1F0000000082
:10047000164B002B00D1144B9D46402292029A1A33
:10048000924600218B460F461348144A121A03F075
:100490009AFD0F4B002B00D098470E4B002B00D03D
:1004A00098470020002104000D000D48002802D0CC
:1004B0000C4800E000BF03F057FD2000290000F0C9
:1004C000D3FD03F03BFDC0460000080000060020FD
:1004D00000000000000000006CFEFF1FC8FEFF1FB0
:1004E000000000000000000072B60A480A490160DE
:1004F0000A6882F30888094880470949094A0A4B73
:100500009B1A03DD043BC858D050FBDC62B6074899
:100510008047000008ED00E000000000053F0000FB
:10052000DC46000000FEFF1F6CFEFF1F7104000090
:10053000084800470848004708480047084800475F
:10054000084800470848004708480047084800474F
:100550000848004731050000350500003905000056
:100560003D0500004105000045050000F93100008F
:10057000C93E0000CD3A0000002934D001230022FA
:1005800010B488422CD301242407A14204D2814212
:1005900002D209011B01F8E7E400A14204D2814222
:1005A00002D249005B00F8E7884201D3401A1A439F
:1005B0004C08A04202D3001B5C0822438C08A042D6
:1005C00002D3001B9C082243CC08A04202D3001B8C
:1005D000DC082243002803D01B0901D00909E3E706
:1005E000101C10BC7047002801D00020C04307B485
:1005F000024802A14018029003BDC046D900000085
:100600000029F0D003B5FFF7B9FF0EBC4243891AA9
:100610001847C046002941D010B4041C4C40A446E1
:1006200001230022002900D54942002800D540427C
:1006300088422CD301242407A14204D2814202D251
:1006400009011B01F8E7E400A14204D2814202D271
:1006500049005B00F8E7884201D3401A1A434C086E
:10066000A04202D3001B5C0822438C08A04202D3A4
:10067000001B9C082243CC08A04202D3001BDC08CC
:100680002243002803D01B0901D00909E3E7101C0D
:100690006446002C00D5404210BC7047002806D0AC
:1006A00003DB0020C043400801E08020000607B4BF
:1006B000024802A14018029003BDC0461900000084
:1006C0000029EBD003B5FFF7A7FF0EBC4243891A00
:1006D0001847C0467047C04680B582B000AF78600A
:1006E0000A1CFB1C1A70FB1C1B78002B07D07B68B4
:1006F0009B68802212031A437B689A6005E07B683E
:100700009A68034B1A407B689A60BD4602B080BD70
:10071000FFFFF7FF80B582B000AF78600A1CFB1CBA
:100720001A70FB1C1B78002B07D07B689B6880220B
:10073000D2021A437B689A6005E07B689A68034B93
:100740001A407B689A60BD4602B080BDFFFFFBFF88
:1007500080B588B000AFF860B9603B60FB1D1A70CF
:100760001E4B1B78002B01D0012333E01B4BFA1DDD
:1007700012781A70FB1D1B78022B2AD1FA68174BCE
:100780005A603B1C1433181C03F07EF83B1C1433D6
:10079000BA681A60114B59683A1C14323B68081C3D
:1007A000111C1A1C02F0F0FE0C4B5B68181C012196
:1007B000FFF792FF094B5B68181C0121FFF7AAFFA6
:1007C000064B074A9A60054B064ADA60C04600238A
:1007D00000E00423181CBD4608B080BD88FEFF1F42
:1007E00085390000E139000080B500AF104B1B785F
:1007F000002B01D1002317E00D4B1B78022B05D1F4
:100800000B4B5B68181C03F00DF803E0084B00224B
:100810001A70C046064B1B78002B01D1042303E05D
:10082000034B00221A700023181CBD4680BDC04631
:1008300088FEFF1F0FB480B582B000AF0D4B1B7850
:10084000002B02D101235B420DE03B1C14333B60C3
:1008500009493A693B68081C111C1A1C00F0DAF8B7
:10086000031C7B607B68181CBD4602B080BC08BCC2
:1008700004B0184788FEFF1F7D08000090B583B0C4
:1008800000AF78600A4B1B78002B02D101235B423A
:1008900009E0074B9C68064B5A683B1D101C191C4D
:1008A0000122A0470123181CBD4603B090BDC046DD
:1008B00088FEFF1F80B586B000AFB9607A603B60EC
:1008C0003B1C0F33021C1A70BB687B610EE03B1CA3
:1008D0000F3300229A563B6A101C98473B681B68EE
:1008E0005A1C3B681A607B6901337B617A697B68BB
:1008F0009A42ECDBBD4606B080BDC04680B58CB0E8
:1009000000AFF860B9607A603B600023FB61FB6870
:10091000BB61BB695A1CBA6100221A707B68002B4C
:1009200036D0BB681B68FB62FB6A002B07D1BB6932
:1009300030221A70FB690133FB61FB6966E023E03A
:10094000F86A3968FFF766FE031C7B617B693A68C9
:100950005343FA6AD31ABB62BB6A002B06DABB6A3E
:100960003B623B6A3022D31ABB6202E0BB6A30337F
:10097000BB627B69FB62BB695A1CBA61BA6AD2B2BC
:100980001A70FB690133FB61FB6A002BD8D13CE094
:10099000BB681B687B627B6A002B07D1BB69302276
:1009A0001A70FB690133FB61FB692FE02AE03B68A9
:1009B000786A191CFFF7E0FD031C3B613B683A694C
:1009C00053437A6AD31A3B623B6A092B03D83B6ACA
:1009D00030333B620BE03B1C38331B78002B01D0DB
:1009E000412300E061233A6A9B180A3B3B623B6962
:1009F0007B62BB695A1CBA613A6AD2B21A70FB694F
:100A00000133FB617B6A002BD1D1FB69181CBD4609
:100A10000CB080BD80B59CB002AFF860B9607A6060
:100A200000233B660023FB650023BB613B1C4A336C
:100A300000221A7000233B61BB687B667FE17B6C00
:100A4000252B07D07A6CFB68101C9847BB690133D3
:100A5000BB6171E13B1C4B3301221A7000237B65A3
:100A60000023BB651CE07B6E01337B667B6E1B78CD
:100A70005BB27B647B6C2F2B0DDD7B6C392B0ADC2E
:100A80007A6D131C9B009B185B001A1C7B6CD3189F
:100A9000303B7B6504E07B6E013B7B660123BB65DD
:100AA000BB6D002BDFD006233B657B6E01337B667D
:100AB0007B6E1B785BB22E2B25D100233B65002378
:100AC000BB651CE07B6E01337B667B6E1B785BB283
:100AD0007B647B6C2F2B0DDD7B6C392B0ADC3A6D34
:100AE000131C9B009B185B001A1C7B6CD318303BBB
:100AF0003B6504E07B6E013B7B660123BB65BB6D00
:100B0000002BDFD002E07B6E013B7B667B6E013306
:100B10007B667B6E1B785BB27B647B6C642B1BD02B
:100B20007B6C692B18D07B6C662B15D07B6C462BAD
:100B300012D07B6C782B0FD07B6C582B0CD07B6C3D
:100B40006F2B09D07B6C622B06D07B6C702B03D093
:100B50007B6C752B00D0ABE07B6C642B02D07B6C84
:100B6000692B19D17B681A1D7A601B687B613A1C5E
:100B70001C323B1C1433391C4B3109780091101C7A
:100B8000191C01220A23FFF7B9FE031CFB653A1C5E
:100B90001C32FB6DD3183B667B6C582B02D07B6CF0
:100BA000782B20D17B6C782B03D13B1C4B3300225C
:100BB0001A707B681A1D7A601B683B613A1C1C32F4
:100BC0003B1C1033391C4B3109780091101C191C47
:100BD00000221023FFF792FE031CFB653A1C1C3217
:100BE000FB6DD3183B667B6C6F2B08D07B6C622B44
:100BF00005D07B6C702B02D07B6C752B3BD17B6856
:100C00001A1D7A601B683B617B6C6F2B08D002DC7D
:100C1000622B0AD018E0702B0CD0752B0FD013E08C
:100C20003B1C4A3308221A700EE03B1C4A33022256
:100C30001A7009E03B1C4A3310221A7004E03B1C76
:100C40004A330A221A70C0463B1C4A331B78391CAF
:100C50001C313A1C1032381C4B3000780090081CB4
:100C6000111C0022FFF74AFE031CFB653A1C1C32D4
:100C7000FB6DD3183B667A6DF96D3B1C1833F86831
:100C800000902020FFF716FE3B6E002B0FD00AE0ED
:100C90003B6E5A1E3A661B785AB2FB68101C984786
:100CA000BB690133BB613B6E1B78002BF0D143E085
:100CB0007B6C632B0ED17B681A1D7A601B68DBB2DC
:100CC0005BB23B643A6CFB68101C9847BB6901330C
:100CD000BB6131E07B6C732B27D17B681A1D7A6076
:100CE0001B68FB64FB6C002B26D0FB6C181C03F00C
:100CF00072F9031CFB657A6DF96D3B1C1833F868BB
:100D000000902020FFF7D6FD0AE0FB6C5A1CFA6425
:100D10001B785AB2FB68101C9847BB690133BB6152
:100D2000FB6C1B78002BF0D106E07A6CFB68101C82
:100D30009847BB690133BB617B6E01337B667B6E79
:100D40001B785BB27B647B6C002B00D077E6BB69C1
:100D5000181CBD461AB080BD84B090B583B000AFFA
:100D60003C1C183420606160A260E3603B1C1833B7
:100D7000181C0021182203F026F93B1C18331D22F1
:100D80001A713B1C183300225A713B1C1833202265
:100D90009A603B1C183301221A733B1C18333A6BC0
:100DA0001A613B1C183301225A613B1C1833002284
:100DB0001A60084A3B1C1833101C191C02F0F8F882
:100DC000031C7B607B68181CBD4603B090BC08BC4C
:100DD00004B018470060064090B58FB004AF3B1CCC
:100DE0001C3317221A703B1D3A1C1C3202926A46B1
:100DF000191C103111C911C2186859689A68DB684A
:100E0000FFF7AAFF031C7B627B6A002BEBD1BD4678
:100E10000BB090BD80B582B000AF7860084A084939
:100E2000084BC958084B19407B689806C0231B051E
:100E300003401943034BD150BD4602B080BDC046AC
:100E40000070044004100000FFFFFFF380B582B083
:100E500000AF0120FFF7DEFF01F028FA031C7B60E2
:100E6000054996239A017B68081C111C0222FFF792
:100E70006FFCBD4602B080BD0040054080B500AFAC
:100E8000034A044B80214902D150BD4680BDC04673
:100E9000007004404410000080B500AFFFF7EEFF83
:100EA000064B181C01F016FB054B181C01F076FAD6
:100EB000044B054A1A60BD4680BDC0460C44000084
:100EC0001444000004FEFF1F006CDC0280B500AF7C
:100ED000034A044B80214902D150BD4680BDC04623
:100EE000007004404410000080B584B000AF3A1C8C
:100EF00008320F4B111C1A1C0623081C111C1A1C4B
:100F000003F058F83B1C00221A703B1C802252024E
:100F10005A60FFF7DBFF3B1C0833181C01F0DAFABC
:100F20003B1C181C01F03AFABD4604B080BDC04617
:100F3000E83F000080B584B000AF3A1C08320F4B88
:100F4000111C1A1C0623081C111C1A1C03F032F871
:100F50003B1C00221A703B1C802252025A60FFF791
:100F6000B5FF3B1C0833181C01F0B4FA3B1C181CDD
:100F700001F014FABD4604B080BDC046F03F000049
:100F800080B582B000AF021CFB1D1A70064BFA1D23
:100F90001278111C1F220A400121081C9040021CDB
:100FA0001A60BD4602B080BD00E100E080B582B0AD
:100FB00000AF021CFB1D1A70064AFB1D1B78191C92
:100FC0001F230B4001219940C0235B00D150BD4637
:100FD00002B080BD00E100E080B582B000AF786073
:100FE00039607B683A685A60BD4602B080BDC04631
:100FF00080B582B000AF786039607B683A689A60EB
:10100000BD4602B080BDC04680B582B000AF7860FA
:101010000A1CFB1C1A707B68FA1C12781A70BD46F9
:1010200002B080BD80B582B000AF78607B681B786D
:10103000DBB21A1C7B685B78DBB21B021343181C03
:10104000BD4602B080BDC04680B582B000AF7860BA
:101050007B689B78DBB208221343DAB27B689A7014
:10106000BD4602B080BDC04680B586B000AF364BED
:10107000181CFFF7D7FF021C0123134006D0334B87
:10108000181CFFF7E1FF0720FFF790FF00F0F2F8D0
:10109000FFF702FFFFF7DAFE3B1D181C02F0E8F92C
:1010A0003B1D01225A713B1D01221A71284A3B1D2A
:1010B000101C191C02F08CF90720FFF761FF1C209F
:1010C000FFF75EFF234B181C2221FFF79DFF00F066
:1010D000E5FA214B181C00F051F83B1C0C33181C8E
:1010E00001F0DCFC002001F0F7F8031C1B493A1C5E
:1010F0000C32081C111C1A1C01F044FCFFF76CFE9A
:1011000001F00EF8164A80235B01101C191CFFF732
:101110006FFF134A80235B01101C191CFFF768FF47
:10112000FA235B00181C00F0D3FA0D4A80235B0100
:10113000101C191CFFF750FFFA235B00181C00F06D
:10114000C7FA00F005FBE4E700F0074000D00740D5
:101150000000044000E00740E09304000060064007
:1011600000F00F4080B582B000AF786039607B68D6
:101170003A685A60BD4602B080BDC04680B582B0B4
:1011800000AF7860C0467B685A1E7A60002BFAD1A7
:10119000BD4602B080BDC04680B500AF094A80237D
:1011A0001B01101C191CFFF7DDFF074B181C8021C9
:1011B000FFF7D8FF034B181C0121FFF7D3FFBD46F3
:1011C00080BDC04640F00F4000F00F4080B500AF3A
:1011D0000A4B181C1021FFF7C5FF094A80235B0149
:1011E000101C191CFFF7BEFF044A80239B01101C32
:1011F000191CFFF7B7FFBD4680BDC04640F00F4049
:1012000000F00F4090B585B000AF78607B681B0C94
:10121000084A9B18FB60FB68FA6811687A68120438
:10122000120C0120041C9440221C0A431A60BD4683
:1012300005B090BD0070044080B584B000AFF86088
:10124000B960FB1D1A70FB68BA689200D258084B4F
:101250001A40FB1D1B781902E023DB000B40111C18
:101260001943FB68BA689200D150BD4604B080BDF6
:10127000FFF8FFFF80B582B000AF5A4B181CFFF794
:10128000C1FF594B181CFFF7BDFF584B181C01211B
:101290000322FFF7D1FF554B181C0C210122FFF749
:1012A000CBFF524B181C03210022FFF7C5FF4F4B09
:1012B000181C04210022FFF7BFFF4C4B181C05210E
:1012C0000122FFF7B9FF494B181C07210122FFF744
:1012D000B3FF464B181C08210222FFF7ADFF434B1A
:1012E000181C09210222FFF7A7FF414B181C0021FF
:1012F0000122FFF7A1FF3E4B181C01210222FFF73C
:101300009BFF3B4B181C0B210122FFF795FF384B2D
:10131000181C0D210122FFF78FFF354B181C0221ED
:101320000222FFF789FF324B181C04210122FFF72C
:1013300083FF2F4B181C05210022FFF77DFF2C4B4C
:10134000181C06210122FFF777FF294B181C0721E3
:101350000122FFF771FF274A2649274BCB5804216A
:10136000181C8843011C244BD150244B234A52693A
:1013700020210A435A613A1D214B111C1A1C0223D9
:10138000081C111C1A1C02F015FE1E4A3B1D101CE5
:101390000B211A1C01F0C6F9184A3B1D101C07212D
:1013A0001A1C01F0BFF9174A3B1D101C00211A1C22
:1013B00001F0B8F9134A3B1D101C04211A1C01F05E
:1013C000B1F90E4A3B1D101C0C211A1C01F0AAF9A0
:1013D0000C4A3B1D101C0D211A1C01F0A3F9BD463F
:1013E00002B080BD090038100A0038100090044097
:1013F00000A00440007004401010000000F00F40F6
:10140000F83F000040F00F4080B582B000AF021CF2
:10141000FB1D1A70064BFA1D1278111C1F220A4080
:101420000121081C9040021C1A60BD4602B080BD1C
:1014300000E100E080B582B000AF021CFB1D1A7015
:10144000064AFB1D1B78191C1F230B4001219940E4
:101450008023D150BD4602B080BDC04600E100E00F
:1014600080B582B000AF021CFB1D1A70064AFB1D3E
:101470001B78191C1F230B4001219940C0235B00DE
:10148000D150BD4602B080BD00E100E0B0B582B0F1
:1014900000AF021C3960FB1D1A70FB1D1B787F2BEF
:1014A00032D93049FB1D1B781A1C0F231340083B0F
:1014B00098082C4AFB1D1B781C1C0F232340083B5B
:1014C0009B0806339B00D3185B68FA1D1278141C26
:1014D00003222240D200FF24251C95402A1CD2431F
:1014E0001A403B689C01FF231C40FB1D1B781D1C00
:1014F00003232B40DB00251C9D402B1C1A43831D1E
:101500009B00CB185A6029E0174BFA1D127852B293
:1015100092081549F81D007840B28008C03080005C
:101520004158F81D0078041C03202040C000FF240F
:10153000251C8540281CC043084039688C01FF21C8
:101540000C40F91D09780D1C03212940C900251CF8
:101550008D40291C0143C0329200D150BD4602B0DB
:10156000B0BDC04600ED00E000E100E080B582B013
:1015700000AF78600A1CFB1C1A707B68FA1C12789A
:101580001A70BD4602B080BD80B582B000AF7860F1
:101590007B68DB78DBB2181CBD4602B080BDC0465C
:1015A00080B584B000AFF860B960FB1D1A70FB68AD
:1015B000BA689200D258084B1A40FB1D1B781904D8
:1015C000F0231B030B40111C1943FB68BA689200FF
:1015D000D150BD4604B080BDFFFFF0FF80B582B0A2
:1015E00000AF786039607B683A685A60BD4602B0E7
:1015F00080BDC04680B582B000AF786039607B683E
:101600003A689A60BD4602B080BDC04680B582B0DF
:1016100000AF786039607B683A68DA60BD4602B036
:1016200080BDC04680B582B000AF786039607B680D
:101630001A693B68DA4001231340181CBD4602B00A
:1016400080BDC04680B500AF72B6114B181C01F0CA
:10165000A5F8031C0E4A101C191C01F0BBF81F2032
:10166000FFF7FEFE0B4B1B68002B0ED10A4B181C1C
:10167000FFF784FD064B181C0721FFF7D3FF031C5F
:10168000002B02D1034B01221A6062B6BD4680BD19
:1016900040F00F4000FEFF1FC0C62D0080B500AF18
:1016A000094B181C2221FFF761FF084B181C07216A
:1016B0000A22FFF775FF1F200021FFF7E7FE1F201A
:1016C000FFF7B8FEBD4680BD00E0074000A0044023
:1016D00080B582B000AF78607B68181C00F078FAA3
:1016E000184B181CFFF750FF031C181C432100F077
:1016F00081FA031C01225340DBB2002B00D01DE015
:10170000104B181CFFF740FF031C181C432100F06E
:101710001DFB432000F0D6FB0A4B181CFFF734FFDB
:10172000031C181C432100F019FC064B181CFFF782
:101730002BFF031C181C432100F032FBBD4602B0F6
:1017400080BDC04600E0074080B500AFBD4680BD0B
:1017500090B583B000AF00237B609AE07A68594B64
:101760009A4271D9FC1C584B181CFFF70DFF031C43
:101770002370FB1C1B78181C432100F03BFA031C50
:1017800001225340DBB2002B15D0504A80231B01AD
:10179000101C191CFFF72EFF4C4B181C1021FFF7D3
:1017A00029FFFA23DB00181CFFF792FFFFF7CCFF9D
:1017B00000237B606DE0454A80231B01101C191C2F
:1017C000FFF70CFF414B181C1021FFF707FF3F4BA1
:1017D000181C0121FFF702FF472000F045FBFB1C0E
:1017E0001B78181C432100F0B1FA1F20FFF738FEC8
:1017F0001F200021FFF74AFE344B181C00F0CEFFDB
:10180000031C324A101C191C00F0E4FF1F20FFF7D4
:10181000FBFD62B62E4B00221A60432000F052FB03
:10182000FB1C1B78181C432100F098FBFB1C1B7849
:10183000181C432100F0B4FA254B1B68002BCBD0B9
:101840001F20FFF7F7FD39E07B68002B0BD1FFF776
:10185000A3FCFFF7BBFC1D4A80231B01101C191CB5
:10186000FFF7C8FE0BE0194A80231B01101C191C4E
:10187000FFF7CCFE154B181C1021FFF7C7FEFA230B
:101880005B00181CFFF724FF7B68FA2292009B186C
:101890007B600E4B181C0721FFF7C4FE031C002BB6
:1018A00000D15BE7094A80231B01101C191CFFF7BC
:1018B00095FE064B181C1021FFF790FEBD4603B0A5
:1018C00090BDC0461027000000E0074040F00F40E8
:1018D00000FEFF1F80B582B000AF021CFB1D1A7016
:1018E000064BFA1D1278111C1F220A400121081C08
:1018F0009040021C1A60BD4602B080BD00E100E0CD
:1019000090B585B000AF78607B681B0C084A9B18C7
:10191000FB60FB68FA6811687A681204120C0120F7
:10192000041C9440221C0A431A60BD4605B090BDB9
:101930000070044090B585B000AF78607B681B0CE8
:10194000094A9B18FB60FB68FA6812687968090409
:10195000090C0120041C8C40211CC9430A401A6058
:10196000BD4605B090BDC0460070044080B582B051
:1019700000AF7860084A0849084BC958084B19401D
:101980007B689806C0231B0503401943034BD150C5
:10199000BD4602B080BDC046007004400410000087
:1019A000FFFFFFF380B582B000AF78607B68DB7823
:1019B000DBB2181CBD4602B080BDC04680B500AF8A
:1019C00072B6BFF36F8FBD4680BDC04680B500AF15
:1019D00062B6BFF36F8FBD4680BDC04680B584B090
:1019E00000AF786039607B681B68FB60FB68802211
:1019F0009343FB60FA683B681343FB607B68FA68BB
:101A00001A60BD4604B080BD80B584B000AF786078
:101A100039607B681B68FB60FB6880229343FB6036
:101A20003B68DA43FB681340FB607B68FA681A6026
:101A3000BD4604B080BDC04680B582B000AF7860BE
:101A40007B681A6840231340181CBD4602B080BD55
:101A500080B582B000AF786039607B681A683B68F7
:101A60001A437B681A60BD4602B080BD80B582B063
:101A700000AF786039603B68002B07D10748262308
:101A8000191CFF31064A074B00F0B6FD3B685A1E91
:101A90007B689A60BD4602B080BDC046FC3F000036
:101AA000404400001440000080B584B000AF78606E
:101AB0007B681B68FB60FB6880229343FB60FB68CC
:101AC00001221343FB607B68FA681A60BD4604B0CC
:101AD00080BDC04680B584B000AF78607B681B686D
:101AE000FB60FB6880229343FB60FB680122934309
:101AF000FB607B68FA681A60BD4604B080BDC046D2
:101B000080B584B000AFF860B960FB1D1A70FB6847
:101B1000BA689200D258084B1A40FB1D1B78190274
:101B2000E023DB000B40111C1943FB68BA689200EC
:101B3000D150BD4604B080BDFFF8FFFF80B584B032
:101B400000AFF860B960FB1D1A70FB68BA689200BC
:101B5000D258084B1A40FB1D1B781904F0231B03B5
:101B60000B40111C1943FB68BA689200D150BD4666
:101B700004B080BDFFFFF0FF80B582B000AF786099
:101B800039607A68A0233968D150BD4602B080BD63
:101B900080B500AF0C4B181C042101F08FFB031C17
:101BA000002B0FD0094B181C07210022FFF7C6FF9E
:101BB000064B181C8021FFF7DFFF034B181C042184
:101BC00001F0A2FBBD4680BD00C0074000A004405C
:101BD00080B582B000AF7860044B7A681A60044B1D
:101BE00000221A70BD4602B080BDC04698FEFF1F9D
:101BF0009CFEFF1F80B584B000AF0A1CFB1D011CBA
:101C00001970BB1D1A703B1C0F3301221A70FB1D8B
:101C10001B78012B02D0042B0ED01FE0BB1D1B78BC
:101C2000452B08D1244B181CFEF704FE3B1C0F3338
:101C300000221A701BE01AE0BB1D1B78422B03D058
:101C4000BB1D1B78432B08D11C4B181CFEF7F2FD63
:101C50003B1C0F3300221A7009E008E0184B181CD7
:101C6000FEF7E8FD3B1C0F3300221A70C0463B1CF8
:101C70000F331B7801225340DBB2002B01D000232D
:101C800016E0BB1D1B78412B03D1FB1D1B78012BDC
:101C900007D0BB1D1B78442B09D1FB1D1B78042BDF
:101CA00005D1084B181CFEF7C5FD002300E00123F9
:101CB000181CBD4604B080BD204000004C40000010
:101CC000844000009C40000080B582B000AF01203D
:101CD000FFF74CFE092000F0FFFA031C7B600B4964
:101CE00096239A017B68081C111C0222FEF730FD26
:101CF000074B181CFFF704FE064B0022DA61044B69
:101D0000181CFFF717FEBD4602B080BD004005401D
:101D10001D003C1000D0034080B582B000AF03200E
:101D2000FFF724FE072000F0D7FA031C7B6006496A
:101D300096239A017B68081C111C0222FEF708FDFD
:101D4000BD4602B080BDC0460040054080B582B0AF
:101D500000AF0A1CFB1D011C1970BB1D1A70C04688
:101D60000D4B181C01F0BEFD021C8023DB03134049
:101D7000F6D0FEF739FDBB1D1B78412B09D0BB1DEA
:101D80001B78442B05D0054B181C01210022FFF7BE
:101D9000B7FEBD4602B080BD0040054000A0044033
:101DA00090B585B000AF0A1CFB1D011C1970BB1D4E
:101DB0001A703C1C0F34164B181CFFF7F3FD031C64
:101DC0002370FB1D1B78042B06D13B1C0F331B78A3
:101DD000012B01D1FFF788F8BB1D1B78412B09D0DF
:101DE000BB1D1B78442B05D00A4B181C0121022275
:101DF000FFF786FE3B1C0F331B78042B02D1FFF745
:101E00008BFF01E0FFF760FFBD4605B090BDC04607
:101E100000E0074000A0044080B500AF0B4B181C49
:101E2000FFF70AFE021C402313400DD0074B181C7D
:101E30004021FFF7E9FD054B181C8021FFF708FE44
:101E4000024B181CFFF746FEBD4680BD0000044053
:101E500080B500AF0523181CBD4680BD80B500AF1E
:101E60000023181CBD4680BD80B582B000AF021CA7
:101E7000FB1D1A70FB1D1B78472B07D0FB1D1B7821
:101E8000482B03D0FB1D1B78492B03D10B4B0122A0
:101E90001A7005E0FFF7E2FF031C1A1C074B1A70CB
:101EA000064B1B78002B05D1FFF7D2FF031C1A1C31
:101EB000034B1A60BD4602B080BDC0469CFEFF1FAA
:101EC00098FEFF1F80B582B000AF021CFB1D1A7088
:101ED0001D4B1B78002B0BD11C4B1B68013B1C4A74
:101EE000101C191CFFF7C2FD194B181CFFF7DCFD75
:101EF000154B1B78002B05D1154B181C4021FFF703
:101F00006DFD05E0134B181C07210A22FFF716FE92
:101F1000FB1D1B78422B14D0FB1D1B78452B10D0CA
:101F2000FB1D1B78462B0CD0FB1D1B78432B08D0C8
:101F3000094B181C0421022201F06EF90720FFF75B
:101F4000C9FCBD4602B080BD9CFEFF1F98FEFF1F6E
:101F50000000044000A0044000C0074080B584B0E9
:101F600000AF0A1CFB1D011C1970BB1D1A703B1C25
:101F70000C3301225A703B1C0C3301229A70BB1D9A
:101F80001B78413B082B00D97CE09A00414BD318C9
:101F90001B689F46FEF7CEFF3F4B181C01F06AFE00
:101FA000C0463D4B181CFFF7FDFC031C042BF8D169
:101FB0006DE0394B181C01F0C9FDC046364B181CAA
:101FC000FFF7F0FC031C012BF8D1FB1D1B78042B41
:101FD00002D1FEF789FF5AE059E0FFF7EFFC2E4BE4
:101FE000181C01F0D5FDFFF7F1FC50E001F080FD79
:101FF000294B181C002101F0E1FD01F093FD46E0A2
:10200000FFF7DCFC244B181C01F058FEFFF7DEFC48
:102010003DE001F06DFD204B181C01F065FE01F064
:1020200081FD34E03B1C0C3300221A7001F060FD8E
:10203000194A3B1C0C33101C191C01F093FE01F0D3
:1020400071FD24E03B1C0C3301221A7001F050FD9D
:10205000114A3B1C0C33101C191C01F083FE01F0CB
:1020600061FD14E03B1C0C3303221A7001F040FDAB
:10207000094A3B1C0C33101C191C01F073FE01F0C3
:1020800051FD04E0054B181CFEF7D4FBC046BD46CD
:1020900004B080BD1C44000000E00740C0400000C8
:1020A00084B090B583B000AF3C1C183420606160F0
:1020B000A260E3603B1C1833181C0021182201F0B9
:1020C00082FF3B1C183310221A713B1C183300226C
:1020D0005A713B1C183300229A603B1C18330122B2
:1020E0001A733B1C18333A6B1A613B1C18330222DB
:1020F0005A613B1C183300221A60084A3B1C1833F3
:10210000101C191C00F054FF031C7B607B68181C1A
:10211000BD4603B090BC08BC04B018470060064040
:1021200090B58FB004AF3B1C183304221A703B1CCF
:10213000183300225A703B1C3A1C183202926A462D
:10214000191C103111C911C2186859689A68DB68E6
:10215000FFF7A6FF031C7B627B6A002BEBD1BD4619
:102160000BB090BD80B582B000AF7860074B074AD6
:102170001168074A11407A689004C0221203024095
:102180000A431A60BD4602B080BDC04600700440DC
:10219000FFFFF3FF80B500AF0E4B1B78DBB21A1CBC
:1021A0000223134008D10B4B9B79DBB21A1C0C2382
:1021B00013409B08012B09D1064B5B78DBB21A1C3C
:1021C00001231A40044B9200D35800E00023181C4E
:1021D000BD4680BD004006408844000080B500AF89
:1021E0000C4B1B78DBB2DBB25BB2002B0DDA0A4B77
:1021F0001B68002B06D10949094A0A4B081C6621B5
:1022000000F0FAF9044B1B6800E00023181CBD46DF
:1022100080BDC04600500640C4FEFF1FCC400000F9
:1022200090440000E440000080B582B000AF1A4B3B
:102230001A68C0231B0313409B0C022B10D0032BE6
:102240001DD0002B1FD1FFF7C9FF021C80231B02EA
:102250009A4202D180231B0200E000237B6015E03C
:102260000E4B1B68002B06D10D490E4A0E4B081C65
:102270007A2100F0C1F9094B1B687B6006E0FA2364
:102280009B007B6002E000237B60C0467B68181CDB
:10229000BD4602B080BDC04600700440C0FEFF1FB6
:1022A000CC400000A8440000F040000080B500AF22
:1022B00000F0CAF8021C0649064BCB581B0F01332D
:1022C000101C191CFEF758F9031C181CBD4680BDD4
:1022D000007004404410000080B584B000AF021CC0
:1022E000FB1D1A70FB1D1B780B2B48D89A00284B3E
:1022F000D3181B689F4600F0A7F8021C2549264BFF
:10230000CB581B0F0133101C191CFEF735F9031CA9
:10231000FB6037E000F098F8021C1E491E4BCB58BA
:102320001B0F0133101C191CFEF726F9031CFB6060
:10233000184A194BD258E023DB0213401B0C01331F
:10234000F868191CFEF718F9031CFB601AE0FFF788
:102350006BFF031CFB6015E0FFF740FF031CFB60F5
:1023600010E000F031F8031CFB600BE000F050F8C7
:10237000031CFB6006E0FA239B00FB6002E00023E5
:10238000FB60C046FB68181CBD4604B080BDC0465B
:1023900058440000007004404410000080B582B032
:1023A00000AF7860064A7B685968064BD1507B685D
:1023B0001B78181CFFF7D6FEBD4602B080BDC04694
:1023C000007004404410000080B582B000AF0F4B95
:1023D0001B7ADBB21A1C0E2313405A08FB1D1A701D
:1023E0000A4B1B7ED9B2BB1D07220A401A70FFF7A9
:1023F000D1FE021CFB1D1978BB1D1B78CB18111CCC
:10240000D9400B1C181CBD4602B080BD00400640E0
:1024100080B500AF0A4B1B7EDBB2DBB25BB2002B98
:1024200007DB074B9B79DBB21A1C0C2313409B087C
:1024300001D1044B00E00023181CBD4680BDC046FE
:1024400000400640006CDC0280B582B000AF1B4B40
:102450009B79DBB21A1C0C2313409B08012B06D07E
:1024600002D3022B12D020E0154B7B6020E0FFF757
:1024700091FE021C114B1B7ADBB2191C0E230B4080
:102480005B08111CD9400B1C7B6011E00D4B1B68D5
:10249000002B06D10C490D4A0D4B081CF52100F00C
:1024A000ABF8084B1B687B6002E000237B60C046F2
:1024B0007B68181CBD4602B080BDC0460040064087
:1024C000006CDC02C4FEFF1FCC400000C0440000D2
:1024D000E440000080B582B000AF78607B68002BDC
:1024E00006D1414890235900404A414B00F084F8FE
:1024F000404B9B79DBB21A1C0C2313409B08012B29
:102500001ED17B681B78012B1AD13A4B5B78DBB26A
:102510001A1C01231A407B689B789A4210D0354BD5
:10252000344A1278D1B23F220A40D2B21A70C04661
:10253000304B9B79DBB21A1C0C2313409B08F7D15C
:102540002C4A7B68DB78DB18D9B20E230B40DBB258
:102550001372284B7A685279D201D1B27A68107915
:1025600007220240D2B20A43D2B21A76214B214A44
:102570005278D2B201218A43D1B27A68907801228E
:102580000240D2B20A43D2B25A701A4B7A68127819
:102590009201D1B27A6852780A43D2B21A70154BBE
:1025A0005B78DBB21A1C042313400BD07B681B78CA
:1025B000022B07D1C0460F4B9B79DBB21A1C0223BA
:1025C0001340F8D0C0467B681B781A1C094B9B79D6
:1025D000DBB2191C0C230B409B089A42F3D1002359
:1025E000181CBD4602B080BDCC400000D4440000A1
:1025F000004100000040064090B587B002AFF8608F
:10260000B9607A603B6005483968FA68BB687C68E5
:102610000094FEF70FF900BEFDE7C0461041000030
:1026200080B584B000AF7860184BFB607B681B7886
:10263000012B0DD17B685B78002B01D1782320E042
:10264000FB681B68802212021A43FB681A6017E0BD
:10265000FB681A680E4B1A40FB681A607B685B784F
:10266000002B07D1FB681B688022D2011A43FB684C
:102670001A6005E0FB681A68064B1A40FB681A608E
:102680000023181CBD4604B080BDC0460C3000F0CD
:10269000FF7FFFFFFFBFFFFF80B584B000AFF86092
:1026A000B960FB1D1A70FB1D1B78002B05D1BB68A0
:1026B00001229A40FB689A6004E0BB6801229A40BC
:1026C000FB685A60BD4604B080BDC04680B584B08A
:1026D00000AF78600023FB600AE00E4BFA689200BE
:1026E000D2587B689A4200D105E0FB680133FB6059
:1026F000FB68012BF1D9FB68012B06D90649074A73
:10270000074B081C4421FFF777FFFB68181CBD46E8
:1027100004B080BDF444000050410000FC440000BF
:102720006841000080B584B000AFF860B9607A609D
:102730007B68002B06D11649164A174B081C4B2103
:10274000FFF75AFF7B681B78002B0BD1FB685B6996
:10275000BA680121081C9040021CD2431A40FB6851
:102760005A6112E07B685B78F968BA68081C111C32
:102770001A1CFFF791FFFB685A69BB680121081C0E
:102780009840031C1A43FB685A61BD4604B080BDE3
:1027900050410000104500008C41000080B584B01D
:1027A00000AF78607B68181CFFF790FF021C3B1C91
:1027B0000F331A703B1C0F331A78054B9200D35815
:1027C000BB60BA68A023D358181CBD4604B080BDB6
:1027D000EC44000080B584B000AF786039607B685D
:1027E000181CFFF773FF021C3B1C0F331A703B1CB5
:1027F0000F331A78054B9200D358BB60BA68A023F8
:102800003968D150BD4604B080BDC046EC440000DC
:1028100090B585B000AF78607B681B0C084A9B18A8
:10282000FB60FB68FA6811687A681204120C0120D8
:10283000041C9440221C0A431A60BD4605B090BD9A
:102840000070044080B582B000AF786039603A68AB
:1028500080235B01134009D07B689B79DAB23B6827
:102860001B0ADBB21343DAB27B689A713A688023A1
:10287000DB01134009D07B689B79DAB23B681B0A05
:10288000DBB21343DAB27B689A713B68DAB27B68D9
:10289000DA70BD4602B080BD80B584B000AF78600C
:1028A0000023FB6007E00D4A7B689A4200D105E0F7
:1028B000FB680133FB60FB68002BF4D0FB68002B46
:1028C00006D00749074A084B081CB521FFF794FEBC
:1028D000FB68181CBD4604B080BDC04600600640C1
:1028E000B8410000A0450000D041000080B584B090
:1028F00000AF786039600023FB603A681023134012
:1029000005D07B681022DA70064BFB6005E03A6860
:102910000123134001D0044BFB60FB68181CBD462B
:1029200004B080BD4F0400004E04000080B582B0AA
:1029300000AF786039607B68DB78DBB21A1C10234B
:10294000134006D17B689B78DBB21A1C202313400E
:1029500007D00A4B1B6879683A68081C111C984715
:1029600006E0074B1B6879683A68081C111C9847F9
:10297000BFF34F8FBD4602B080BDC046A4FEFF1F0F
:10298000A8FEFF1F80B586B000AFF860B9607A601E
:10299000BB68002B02D07B68002B06D13A48ED23A0
:1029A00059003A4A3A4BFFF727FEFB68181CFFF71D
:1029B00073FF384B181CFFF72BFFFB6800221A70BF
:1029C000FB6800225A70FB6800229A70FB68FF22A5
:1029D000DA70FB6800225A71FB6850229A71FB681A
:1029E0000022DA71FB689B78DAB27F231340DAB2F7
:1029F000FB689A70FA68284B101C191CFFF722FF1D
:102A0000BB685A68F9687B68081C111C1A1C00F026
:102A10006BF83B1C1733FA6892791A703B1C17331A
:102A20003A1C173211787F220A401A70BB685B7813
:102A3000DB01D9B23B1C17333A1C173212780A4318
:102A40001A703B1C17333A1C173212780F218A4335
:102A50001A70BB681A7A0F231340D9B23B1C173384
:102A60003A1C173212780A431A70FB683A1C173264
:102A700012789A71BB681B78DB01DAB2FB689A7036
:102A8000BD4606B080BDC046B8410000B04500005C
:102A9000F4410000060034101250000080B582B0EE
:102AA00000AF78607B68002B05D10A480A490B4AC1
:102AB0000B4BFFF7A1FD7B680A4A5A607B68002236
:102AC0005A707B6800221A727B6801221A70BD4618
:102AD00002B080BDB841000023020000C0450000E4
:102AE00010420000A086010080B58CB000AFF860F5
:102AF000B9607A6001235B42FB620023BB62002362
:102B00007B623B1C233300221A704BE03B1C2333B7
:102B10001B780122111C99400B1CFB613B1C2233CA
:102B200000221A7032E03B1C22331A78294B5200E3
:102B3000D35AFA6953437868191CFDF71DFD031C2D
:102B4000BB61BA68BB699A4203D9BA68BB69D31A38
:102B500002E0BA69BB68D31A7B617A69FB6A9A4260
:102B60000DD23B1C23331B78BB623B1C22331B78EA
:102B70007B627B69FB627B69002B00D10BE03B1C15
:102B800022333A1C2232127801321A703B1C223353
:102B90001B783F2BC7D93B1C23333A1C23321278B6
:102BA00001321A703B1C23331B78022B02D8FB6ABC
:102BB000002BABD1BB6ADBB29B01DAB27B6AD9B224
:102BC0003F230B40DBB21343DAB2FB685A70BD46B9
:102BD0000CB080BD2045000080B584B000AF7860A7
:102BE000FB1C1970BB1C1A700023FB607B68181C4F
:102BF00000F0CAF8031CBB60BA682023134002D05F
:102C0000134BFB601EE07B689B78DBB230221343E2
:102C1000DAB27B689A70C0467B681B7BDBB21A1CF9
:102C200001231340F8D0FB1C1B78DB18DAB2BB1C65
:102C30001B78012B01D1012300E000231343DAB2FA
:102C40007B681A71FB68181CBD4604B080BDC04685
:102C50004C04000080B586B000AF7860FB1C197092
:102C6000BB1C1A7000237B617B68181C00F08CF879
:102C7000031CFB603B1C133306221A70FA682023E6
:102C8000134009D07B689B78DBB21A1C20231340C9
:102C900002D1224B7B613BE03B1C0B337A685278BC
:102CA0001A703B1C0B331A783F231340DAB27B684F
:102CB0005A707B689B78DBB214221343DAB27B68CC
:102CC0009A707B683A1C0B3212785A7000E0C0464A
:102CD0003B1C13331B783A1C1332591E1170002B06
:102CE000F5D1C0467B681B7BDBB21A1C0123134065
:102CF000F8D0FB1C1B78DB18DAB2BB1C1B78012B4D
:102D000001D1012300E000231343DAB27B681A717A
:102D10007B69181CBD4606B080BDC0464C0400004F
:102D200080B584B000AF78600023FB603B1C0A33A1
:102D3000012252421A807B689B78DBB2382293438F
:102D4000DAB27B689A70C0467B68DB78DBB21A1C0B
:102D5000202313400BD03B1C0A333A1C0A32128842
:102D6000013A1A803B1C0A331B88002BECD13B1C18
:102D70000A331B88002B02D18A23DB00FB60FB682F
:102D8000181CBD4604B080BD80B584B000AF78602B
:102D90007B68DB78DBB2FB607B689B79DBB21A1C5B
:102DA0004023134004D0FB688022D2011343FB6010
:102DB0007B689B79DBB21A1C1023134004D0FB689C
:102DC000802252011343FB60FB68181CBD4604B00F
:102DD00080BDC04680B586B000AFF860B9607A604B
:102DE0003B6000237B613B1C133300221A70C046FA
:102DF000FB68DB78DBB2DBB25BB2002BF8DAFB6896
:102E00000222DA70FB689B78DBB210221343DAB23D
:102E1000FB689A7032E0BB685A1CBA601A78FB688B
:102E20001A71C046FB68DB78DBB21A1C0223134020
:102E3000F8D03B1C1333FA68D2781A70FB68022270
:102E4000DA703B1C13331A781023134004D0FB684C
:102E50001022DA70184B7B613B1C13331A78012364
:102E6000134007D07B68002B04D0FB680122DA7086
:102E7000124B7B617B69002B00D004E07B685A1EFB
:102E80007A60002BC7D17B69002B03D13A680423F9
:102E9000134003D07A69094B9A4208D1FB68022299
:102EA000DA70FB68181CFFF73BFF031C7B617B6932
:102EB000181CBD4606B080BD4F0400004E04000043
:102EC00080B586B000AFF860B9607A603B600023DF
:102ED0007B613B1C133300221A703B1C13331B789D
:102EE000DBB20133DAB23B1C13331A70C046FB6805
:102EF000DB78DBB2DBB25BB2002BF8DAFB680222D4
:102F0000DA70FB689B78DBB218229343DAB2FB6875
:102F10009A707B68012B07D1FB689B78DBB2082293
:102F20001343DAB2FB689A70FB681B79DAB23B1C78
:102F300013331A7032E0C046FB68DB78DBB21A1C30
:102F400002231340F8D0FB680222DA707B68002B62
:102F500012D13A680423134006D1FB68181CFFF70E
:102F6000DFFE031C7B6107E0FB689B78DBB210226D
:102F70001343DAB2FB689A707B68012B07D1FB68B8
:102F80009B78DBB208221343DAB2FB689A70BB6805
:102F90005A1CBA60FA681279D2B21A707B685A1E4B
:102FA0007A60002BC7D17B69181CBD4606B080BD76
:102FB00080B584B000AF786039603B68002B05D1E4
:102FC00086488749874A884BFFF716FB3B1C0F331F
:102FD0003A6852791A700023BB607A68834B101CE0
:102FE000191CFFF72FFCC0467B68DB78DBB2DBB235
:102FF0005BB2002BF8DA3B681B7B002B07D03B68E9
:103000005B79012B03D13B1C0F3300221A703B6804
:103010001A68022313400DD03B681A7979683B1C6B
:103020000F331B78081C111C1A1CFFF713FE031C1E
:10303000BB600CE03B681A7979683B1C0F331B7846
:10304000081C111C1A1CFFF7C7FD031CBB60BB68E2
:10305000002B01D0BB68BDE0C0467B68DB78DBB2EB
:103060001A1C02231340F8D07B68DB78DBB27A6845
:10307000101C191CFFF73AFC031CBB60BB68002B3B
:103080000BD0BA685A4B9A4205D15A4BBB607B6849
:10309000181CFFF745FEBB689CE03B681B7B002BC0
:1030A00000D170E07B680222DA703B681B7B013B39
:1030B000DAB23B681A733B689A683B681B7BDB009B
:1030C000111CD9400B1CDAB27B681A71C0467B68B0
:1030D000DB78DBB21A1C02231340F8D07B68DB7864
:1030E000DBB27A68101C191CFFF700FC031CBB60E4
:1030F000BB68002B09D0BA683D4B9A4203D17B686C
:10310000181CFFF70DFEBB6864E03B681B7B002BBF
:1031100002D0BB68002BC5D03B685B79012B32D154
:103120007B680222DA703B681B797A68101C191CD4
:103130000122FFF78FFD031CBB60BB68002B01D091
:10314000BB6847E0C0467B68DB78DBB21A1C022311
:103150001340F8D07B68DB78DBB27A68101C191C4E
:10316000FFF7C4FB031CBB60BB68002B0BD0BA6825
:103170001F4B9A4205D11F4BBB607B68181CFFF7A1
:10318000CFFDBB6826E03B685B79002B0ED13B6826
:103190005B69002B0AD03B6819693B685A693B6838
:1031A0001B687868FFF716FE031CBB603B685B7901
:1031B000012B0ED13B685B69002B0AD03B68196973
:1031C0003B685A693B681B687868FFF779FE031C07
:1031D000BB60BB68181CBD4604B080BDB841000090
:1031E00095030000DC450000204200001250000062
:1031F0004E0400005104000080B500AF044B1B6872
:10320000044A101C191CFFF791FBBD4680BDC04647
:10321000A0FEFF1F0060064080B586B000AFF860DA
:10322000B960FB1D1A70BB689B0802D0012B03D04C
:1032300006E0FB687B6106E0FB6801337B6102E02E
:1032400000237B61C0467B69002B33D03B1C1333CA
:103250007A6912781A70BB68DAB203231340DBB2C2
:103260003A1C1232DB1813703B1C12331B780322FA
:10327000111C99400B1CDBB2DB43DAB23B1C13334D
:10328000391C133109780A401A70FB1D1A783B1C4F
:1032900012331B78111C99400B1CD9B23B1C133301
:1032A0003A1C133212780A431A707B693A1C1332A3
:1032B00012781A70BD4606B080BDC04680B584B095
:1032C00000AF786039603B68DB0803D17B6803336B
:1032D000FB6002E00023FB60C046FB68002B0DD0C2
:1032E000FB681B78DBB21A1C396807230B40DA40F5
:1032F000012313405A1E9341DBB200E00023181C47
:10330000BD4604B080BDC04680B584B000AF7860D3
:1033100039603B68DB0803D17B680333FB6002E064
:103320000023FB60C046FB68002B09D03A680723E6
:1033300013400122111C99400B1CDAB2FB681A7071
:10334000BD4604B080BDC04690B585B000AF786082
:103350007B681B0C084A9B18FB60FB68FA681168C5
:103360007A681204120C0120041C9440221C0A43A7
:103370001A60BD4605B090BD0070044080B584B0B1
:1033800000AF78600023FB6007E00D4A7B689A423B
:1033900000D105E0FB680133FB60FB68002BF4D033
:1033A000FB68002B06D00749074A084B081C4E2132
:1033B000FFF722F9FB68181CBD4604B080BDC0466B
:1033C0000000044080420000F845000098420000E0
:1033D00080B584B000AF786039603B68002B06D1BF
:1033E0001F49204A204B081C5521FFF705F97B682F
:1033F000181CFFF7C3FF031CFB601C4B181CFFF7D6
:10340000A3FF3B681B785A0002231A403B68DB7815
:10341000990004230B401A433B689B78D90008238A
:103420000B401A433B685B78190130230B401A4369
:103430007B681A603B689B79DA0078231A403B6806
:103440001B79990004230B401A433B685B79191CD4
:1034500003230B401A437B685A60BD4604B080BD0D
:10346000804200000C460000BC4200000000381002
:1034700080B582B000AF78607B68002B06D10F4921
:103480000F4A104B081C7F21FFF7B6F87B6800221B
:103490001A707B6800225A707B6800229A707B68E1
:1034A0000022DA707B6801221A717B6801225A714E
:1034B0007B6800229A71BD4602B080BD8042000048
:1034C00018460000BC42000090B585B000AF78609F
:1034D0007B681B0C084A9B18FB60FB68FA68116844
:1034E0007A681204120C0120041C9440221C0A4326
:1034F0001A60BD4605B090BD0070044090B585B01F
:1035000000AF78607B681B0C094A9B18FB60FB6866
:10351000FA68126879680904090C0120041C8C40BF
:10352000211CC9430A401A60BD4605B090BDC04683
:103530000070044080B584B000AF78600023FB6069
:1035400007E00D4A7B689A4200D105E0FB68013331
:10355000FB60FB68002BF4D0FB68002B06D007490A
:10356000074A084B081C9421FFF746F8FB68181C13
:10357000BD4604B080BDC04600400540C4420000C6
:1035800030460000DC42000090B58DB000AFF8601E
:10359000B9607A60BB68002B06D19749974A984B6F
:1035A000081CEB21FFF728F8BB681B68002B06D12D
:1035B0009149924A934B081CEC21FFF71DF8BB6818
:1035C0001B68BB6100237B623B1C2A3300221A80EC
:1035D00004233B625DE0BB681B683A6A534378682A
:1035E000191CFCF7C9FF031C1A1C3B1C28331A804A
:1035F0003B1C28331B88002B03D13B1C28330122A2
:103600001A803B1C28331B883A6A53437868191C7C
:10361000FCF7B2FF031C7B61BB681B687A69D31A95
:10362000FB61BB681C683B1C28331B8801333A6A6A
:1036300053437868191CFCF79FFF031CE21AFB69CF
:103640009A4215D2BB681C683B1C28331B88013387
:103650003A6A53437868191CFCF78EFF031CE31A7F
:10366000FB613B1C28331A883B1C283301321A802B
:10367000FA69BB699A4209D8FB69BB613B6A7B6204
:103680003B1C2A333A1C283212881A803B6A0133C9
:103690003B623B6A202B9ED9BB681B68181C6421C7
:1036A000FCF76AFF031C1A1C131C5B009A18BB6909
:1036B0009A4201D2544B9AE0FB68181CFFF73AFF7C
:1036C000031C3B61514B181CFFF7FEFEFB689A6818
:1036D0004F4B1A40FB689A60FB681B68FB627B6A71
:1036E000032B07D97B6A072B04D8FB6A802292023E
:1036F0001343FB62FA6A474B1340FB627B6A013B50
:103700001A06F8235B051340FA6A1343FB62FB6A4F
:103710005B0B5B03FB623B1C2A331B88DB04DA0C6C
:10372000FB6A1A43FB681A60FB681A683A4B1A4036
:10373000FB681A60FB689B6813229343FB62BB68BB
:103740001B79FA6A1343FB62BB681B79002B03D019
:10375000FB6A10221343FB62FB68FA6A9A60FB68FB
:103760001A682E4B1340FB62BB68DB795A03802337
:103770009B011A40FB6A1A43FB681A60284BFB62E4
:10378000FB6A802212061343FB62FB6AC02212020C
:103790001343FB62BB689B79002B05D0FB6A802238
:1037A00092051343FB6203E0FA6A1B4B1340FB6272
:1037B000FB685A68FB6A1A43FB685A60FB689B689F
:1037C000FB62BB681B7A002B04D0FB6A80221203C9
:1037D0001343FB62BB685B7A002B04D0FB6A802238
:1037E000D2021343FB62FB68FA6A9A600023181C3A
:1037F000BD460DB090BDC046C44200004446000026
:10380000144300001C430000210500001400381080
:10381000FFFFF3FFFFFFFFE0FFFFFFDFFFDFFFFF23
:1038200000001F4080B584B000AF7860C0467B6860
:103830005A688023DB031340F9D0114BFB60FB680F
:10384000802212061343FB60FB68C022120213435E
:10385000FB607B685A68FB681A437B685A607B6828
:1038600000229A607B68181CFFF764FE031CBB6093
:10387000044B181CFFF742FEBD4604B080BDC04695
:1038800000001F401400381080B582B000AF78608F
:103890007B68002B07D11048D023191CFF310F4A39
:1038A0000F4BFEF7A9FE7B68E12252021A607B688B
:1038B00000221A717B6800225A717B6800229A717B
:1038C0007B680022DA717B6800221A727B68002212
:1038D0005A72BD4602B080BDC4420000504600008E
:1038E0001443000080B584B000AF78607B685B68EB
:1038F000FB60FB68181CBD4604B080BD80B584B079
:1039000000AF786039607B685B68BB60BB685B0058
:103910005B08BB603B68DB0FDB07BA681343BB6027
:10392000BA68144B1340BB603A68134B1340BA6833
:103930001343BB60BA68114B1340BB603A68C023A5
:103940001B021340BA681343BB607B68BA685A60B5
:103950007B68181CFFF7C6FF031C3A68134002D0AF
:10396000074BFB6001E00023FB60FB68181CBD46B1
:1039700004B080BDFFFFE0BF00001F40FF3FFFFF1E
:103980001A05000080B584B000AFF860B9607A60B5
:10399000BB68002B05D10E480E490F4A0F4BFEF7AE
:1039A0002BFE0DE0C046FB685A6880231B041340C1
:1039B000F9D0BB685A1CBA601B781A1CFB68DA6025
:1039C0007B685A1E7A60002BECD1BD4604B080BDE6
:1039D000C44200008E020000684600000C43000054
:1039E00080B586B000AFF860B9607A60BB68002B24
:1039F00005D12F482F49304A304BFEF7FDFD4CE0F2
:103A00003EE0FB68181CFFF76DFF031C7B617A69C1
:103A100080231B03134008D0FA6880231B03101C6B
:103A2000191CFFF76BFF264B3DE07A698023DB0210
:103A3000134008D0FA688023DB02101C191CFFF722
:103A40005DFF204B2FE07A6980239B02134008D052
:103A5000FA6880239B02101C191CFFF74FFF1A4BBA
:103A600021E07A6980235B02134009D0FA68802341
:103A70005B02101C191CFFF741FFA423DB0012E0BE
:103A8000FB685A6880239B031340BAD0BB685A1C5A
:103A9000BA60FA68D268D2B21A707B685A1E7A602D
:103AA000002BADD10023181CBD4606B080BDC0461A
:103AB000C44200009D020000804600000C4300004C
:103AC0001D0500001E0500001F05000080B500AFA9
:103AD000044B1A68044B1B680449081C191C9047C6
:103AE000BD4680BDB0FEFF1FACFEFF1F004005407D
:103AF00080B582B000AF3A1D094B111C1A1C02237D
:103B0000081C111C1A1C00F055FA72B6BFF36F8F17
:103B10003B1D181CFEF784FDBD4602B080BDC046AB
:103B20007C43000080B582B000AF3B1D00221A70BC
:103B30003B1D00225A703B1D181CFEF771FD62B63A
:103B4000BFF36F8FBD4602B080BDC04680B584B064
:103B500000AF78603B1C0F337A6852781A703B1CB8
:103B60000F333A1C0F32127860218A431A703B1CC3
:103B70000F333A1C0F3212781A707B683A1C0F32DE
:103B800012785A700023181CBD4604B080BDC04690
:103B900080B582B000AF7860074B074A12690421F4
:103BA0008A431A61BFF34F8F30BFBFF36F8F00237B
:103BB000181CBD4602B080BD00ED00E080B584B0A9
:103BC00000AF78600A1CFB1C1A703B1C0F337A682C
:103BD00092781A703B1C0F333A1C0F3211783F2237
:103BE0000A401A70FB1C1B789B01D9B23B1C0F3397
:103BF0003A1C0F3212780A431A707B683A1C0F3253
:103C000012789A703B1C0F337A6852781A703B1CFA
:103C10000F333A1C0F32127807218A431A703B1C6B
:103C20000F333A1C0F3212781A707B683A1C0F322D
:103C300012785A700D4B0D4A126904210A431A6119
:103C40007B685B78BFF34F8F30BFBFF36F8F7B68AC
:103C50005B78DBB21A1C0823134001D0044B00E050
:103C60000023181CBD4604B080BDC04600ED00E036
:103C70003C0F000080B584B000AF78603B1C0F3370
:103C80007A6852781A703B1C0F333A1C0F32127844
:103C900060218A431A703B1C0F333A1C0F32127892
:103CA00040210A431A707B683A1C0F3212785A700E
:103CB0000023181CBD4604B080BDC04680B582B04C
:103CC00000AF7860074B074A126904218A431A61E2
:103CD000BFF34F8F30BFBFF36F8F0023181CBD465B
:103CE00002B080BD00ED00E080B584B000AF786028
:103CF0003B1C0F337A6852781A703B1C0F333A1C06
:103D00000F32127807218A431A703B1C0F333A1C7A
:103D10000F32127802210A431A707B683A1C0F3264
:103D200012785A700D4B0D4A126904210A431A6128
:103D30007B685B78BFF34F8F30BFBFF36F8F7B68BB
:103D40005B78DBB21A1C0823134001D0044B00E05F
:103D50000023181CBD4604B080BDC04600ED00E045
:103D60003C0F000080B584B000AF786039603B68DC
:103D70001B78002B14D13B685B78002B08D07B6844
:103D80009B78DBB220229343DAB27B689A7007E01B
:103D90007B689B78DBB220221343DAB27B689A708F
:103DA0003B1C0F337A6852781A703B1C0F333A1C55
:103DB0000F32127807218A431A703B1C0F333A1CCA
:103DC0000F32127804210A431A707B683A1C0F32B2
:103DD00012785A703B1C0F337A6892781A703B1C29
:103DE0000F333A1C0F32127807218A431A703B684E
:103DF00019783B1C0F333A1C0F3212780A431A70A1
:103E00007B683A1C0F3212789A703B689B78002BC3
:103E100008D07B689B78DBB208229343DAB27B68D8
:103E20009A7007E07B689B78DBB208221343DAB212
:103E30007B689A700D4B0D4A126904210A431A617E
:103E40007B685B78BFF34F8F30BFBFF36F8F7B68AA
:103E50005B78DBB21A1C0823134001D0044B00E04E
:103E60000023181CBD4604B080BDC04600ED00E034
:103E70003C0F000080B582B000AF786039607B688D
:103E8000DB78DBB21A1C102313400AD00B4B1B68E3
:103E90000B4A396889008A587968081C111C9847B0
:103EA00009E0084B1B68064A396889008A58796816
:103EB000081C111C9847BD4602B080BDB8FEFF1F0C
:103EC000B4FEFF1FBCFEFF1F80B500AF084B1B6890
:103ED000002B06D107488123D900074A074BFEF77C
:103EE0008BFB074B181C0021FFF7C4FFBD4680BDAC
:103EF000B4FEFF1F8043000094460000FC43000016
:103F00000060074080B500AF0A4B9B78DBB21A1CFB
:103F10000823134007D0074B064A9278D2B20821F3
:103F20000A43D2B29A70044A88235B010021D1501F
:103F3000BD4680BD00D0074000700440084B10B55E
:103F4000041C002B02D0002100E000BF054B1868C4
:103F5000836A002B00D09847201C00F043F8C0462D
:103F600000000000B046000070B50E4B0E4D00245E
:103F7000ED1AAD101E1CAC4204D0A300F3589847B4
:103F80000134F8E700F096FB084B094D0024ED1AC8
:103F9000AD101E1CAC4204D0A300F3589847013466
:103FA000F8E770BDD4460000D4460000D4460000B7
:103FB000D846000010B50023934203D0CC5CC45413
:103FC0000133F9E710BD031C8218934202D0197027
:103FD0000133FAE770470023C25C0133002AFBD1AA
:103FE000581E7047FEE7C0460000010000010000B7
:103FF0000102000000000000010100002E2E2F64CD
:104000007269766572732F66736C5F6C70746D7213
:104010002E6800007469636B73203E20300000003E
:10402000436F756C64206E6F7420656E74657220CA
:10403000564C5057206D6F64652066726F6D20522C
:10404000554E206D6F64652E0D0A0000436F756C30
:1040500064206E6F7420656E7465722048535255EB
:104060004E2F53544F502F57414954206D6F646564
:10407000732066726F6D20564C5052206D6F6465D0
:104080002E0D0A0057726F6E6720706F7765722071
:1040900073746174652E0D0A00000000416C726536
:1040A00061647920696E2074686520746172676547
:1040B0007420706F776572206D6F64652E0D0A0035
:1040C00057726F6E672076616C7565002E2E2F64B7
:1040D0007269766572732F66736C5F636C6F636B66
:1040E0002E630000675F7874616C30467265710002
:1040F000675F7874616C333246726571000000004E
:10410000746172676574436F6E66696700000000D2
:10411000415353455254204552524F52202220259C
:104120007320223A2066696C652022257322204C78
:10413000696E6520222564222066756E6374696F3E
:104140006E206E616D652022257322200A0000001A
:104150002E2E2F647269766572732F66736C5F679B
:1041600070696F2E63000000696E7374616E636521
:10417000203C2041525241595F53495A4528735FB0
:104180006770696F4261736573290000636F6E66C3
:1041900069670000696E7374616E6365203C20413D
:1041A000525241595F53495A4528735F6667706997
:1041B0006F426173657329002E2E2F6472697665D4
:1041C00072732F66736C5F6932632E6300000000A8
:1041D000696E7374616E6365203C2041525241598F
:1041E0005F53495A4528735F69326342617365734F
:1041F000290000006D6173746572436F6E666967B4
:1042000020262620737263436C6F636B5F487A00CD
:104210006D6173746572436F6E66696700000000BC
:10422000786665720000000068616E646C6500006D
:1042300069326348616E646C65000000736C61767E
:1042400065436F6E66696700736C617665436F6E78
:104250006669672D3E736C6176654164647265734F
:1042600073203C20736C617665436F6E6669672DC1
:104270003E7570706572416464726573730000000E
:104280002E2E2F647269766572732F66736C5F6C65
:1042900070746D722E630000696E7374616E636575
:1042A000203C2041525241595F53495A4528735F7F
:1042B0006C70746D7242617365732900636F6E6612
:1042C000696700002E2E2F647269766572732F66FF
:1042D000736C5F6C70756172742E6300696E7374B9
:1042E000616E6365203C2041525241595F53495AE7
:1042F0004528735F6C7075617274426173657329D0
:104300000000000068616E646C65000064617461A7
:1043100000000000636F6E6669670000636F6E6681
:1043200069672D3E62617564526174655F427073A6
:104330000000000062617564526174655F427073D1
:104340000000000072696E67427566666572000063
:104350007866657200000000786665722D3E6461C3
:1043600074610000786665722D3E64617461536902
:104370007A650000636F756E740000000101000033
:104380002E2E2F647269766572732F66736C5F735D
:1043900070692E6300000000696E7374616E63655E
:1043A000203C2041525241595F53495A4528735F7E
:1043B000737069426173657329000000636F6E66F4
:1043C000696720262620737263436C6F636B5F48B6
:1043D0007A000000636F6E66696700007866657238
:1043E0000000000068616E646C65000068616E64C6
:1043F0006C6520262620786665720000735F7370F6
:104400006948616E646C655B305D0000000201000C
:10441000000100000000000000000100B21F0000C9
:10442000DA1F0000EC1F0000941F000000200000B5
:10443000122000002420000044200000642000001E
:104440004C50544D525F53657454696D657250659C
:1044500072696F6400000000F6220000F62200007E
:1044600014230000142300004E23000058230000F2
:104470007E230000622300007E2300006C230000E6
:104480006C2300007623000080841E0000127A0056
:10449000434C4F434B5F4765744F736330457243E2
:1044A0006C6B467265710000434C4F434B5F476530
:1044B00074457233326B436C6B4672657100000059
:1044C000434C4F434B5F4765744F7574436C6B4669
:1044D00072657100434C4F434B5F5365744D636786
:1044E0006C697465436F6E666967000000900440F4
:1044F00000A0044000F00F4040F00F404750494FEB
:104500005F476574496E7374616E636500000000F7
:104510004750494F5F50696E496E69740000000052
:104520001400160018001A001C001E0022002800AB
:104530001C002000240028002C003000380044001B
:1045400030003800400048005000580068008000EB
:1045500050006000700080009000A000C000F000DB
:10456000A000C000E0000001200140018001E00146
:1045700040018001C0010002400280020003C0032C
:104580008002000380030004800400050006800709
:1045900000050006000700080009000A000C000FD3
:1045A0004932435F476574496E7374616E63650099
:1045B0004932435F4D6173746572496E69740000DE
:1045C0004932435F4D617374657247657444656633
:1045D00061756C74436F6E66696700004932435FB2
:1045E0004D61737465725472616E73666572426C6C
:1045F0006F636B696E6700004C50544D525F4765A6
:1046000074496E7374616E63650000004C50544DC4
:10461000525F496E697400004C50544D525F4765BB
:104620007444656661756C74436F6E6669670000FB
:104630004C50554152545F476574496E7374616EB6
:10464000636500004C50554152545F496E697400D7
:104650004C50554152545F47657444656661756CB2
:1046600074436F6E666967004C50554152545F57F2
:1046700072697465426C6F636B696E67000000005D
:104680004C50554152545F52656164426C6F636B8C
:10469000696E6700535049305F44726976657249AC
:1046A000525148616E646C65720000004300000066
:1046B00008FEFF1FF8B5C046F8BC08BC9E46704710
:0C46C000F8B5C046F8BC08BC9E46704728
:0846CC00A4BDFF7F0100000006
:0446D40039040000A5
:0446D80011040000C9
:1046DC000100000000127A00000000000000000041
:1046EC0000000000000000000000000000000000BE
:1046FC000000000000000000AC46000000000000BC
:10470C00000000000000000000000000000000009D
:10471C00000000000000000000000000000000008D
:10472C00000000000000000000000000000000007D
:0C473C0000000000000000000000000071
:04000003000004E90C
:00000001FF
