:1000000000800020190C0000590C00005B0C00005F
:1000100000000000000000000000000000000000E0
:100020000000000000000000000000005D0C000067
:1000300000000000000000005F0C0000610C0000E8
:10004000010A0000630C00007D0A0000630C000040
:10005000630C000000000000630C0000630C000053
:10006000630C0000630C0000630C0000630C0000D4
:10007000630C0000630C0000630C0000630C0000C4
:10008000630C000005050000630C0000630C000019
:10009000E1050000630C0000630C0000630C00002D
:1000A000630C0000630C0000000000000000000072
:1000B0000000000000000000000000000000000040
:1000C00008B5054B054803331B1A062B03D9044B0F
:1000D000002B00D0984708BD700000207000002061
:1000E000000000000648074908B5091A8910CB0F1F
:1000F0005918491003D0044B002B00D0984708BD75
:1001000070000020700000200000000010B5074CB7
:100110002378002B09D1FFF7D3FF054B002B02D02A
:10012000044800E000BF0123237010BD70000020D0
:1001300000000000700D000008B5094B002B03D033
:100140000848094900E000BF08480368002B02D1B5
:10015000FFF7C8FF08BD064B002BF9D09847F7E71B
:1001600000000000700D0000740000206C000020F2
:1001700000000000144B002B00D1124B9D46402282
:1001800092029A1A924600218B460F461148124A53
:10019000121A00F07DF80D4B002B00D098470C4B45
:1001A000002B00D098470020002104000D000B48D0
:1001B00000F016F800F046F82000290000F02AFDB3
:1001C00000F016F800000800008000200000000089
:1001D0000000000070000020700100201D020000DF
:1001E000011C002008B5021C031C00F059F808BDD2
:1001F000084B10B5041C002B02D0002100F0ACF815
:10020000054B1868836A002B00D09847201C00F02B
:1002100017F9C046590300006C0D000038B5074BB4
:10022000074C1D1CE41AA410002C04D0013CA300B0
:10023000EB589847F8E700F091FD38BD68000020C2
:100240006C0000200E4B70B500251E1C0D4CE41AEE
:10025000A410A54204D0AB00F35898470135F8E745
:1002600000F076FD084B00251E1C084CE41AA41073
:10027000A54204D0AB00F35898470135F8E770BDAC
:10028000640000206400002064000020680000205A
:10029000031C8218934202D019700133FAE77047A9
:1002A000F7B52A4D061C2C680091171C0193002CF1
:1002B00001D1274C2C6063681F2B15DD254B002BCB
:1002C00002D10120404240E08C2000E000BF041E2B
:1002D000F7D02A6800230260021C8832436028603D
:1002E00013609E420AD128E0002E26D0231C8833BA
:1002F0001868002810D1174B002BE2D08420400052
:1003000000E000BF0028DCD0031C0022FC335A6050
:100310009A60231C88331860012261688A408B0030
:10032000C31880C3FC304168114341600199D9670B
:10033000022E02D183681A438260002063685A1C2F
:1003400062600233009A9B001A51FEBD1801002022
:100350008C00002000000000F0B587B005900391EC
:10036000344D2C68002C63D0231C88331E686368CE
:100370005A1E0192304A9B189B00F7180433E31869
:100380000293019B002B3DDB039B002B07D0002E2B
:1003900031D03B1C80331B68039A93422BD1626897
:1003A000029B0199013A5B68914201D1616002E0D0
:1003B000002202994A60002B1DD062680492002E30
:1003C00007D0012201998A40311CFC314868104253
:1003D00001D1984708E08968114203D1059839682E
:1003E000984701E038689847049B62689342B7D108
:1003F0002B68A342B4D1019B043F013B0193029BB4
:10040000043BBDE70D4B002B12D062682368002A25
:100410000BD1002B09D02B60002E02D0301C00E045
:1004200000BF201C00E000BF9BE7251C1C1C99E7B7
:1004300007B0F0BD18010020FFFFFF3F00000000E3
:10044000FEE7C046002300B585B001AA90600021F8
:1004500003481380536000F005F805B000BDC046A6
:1004600001400000BFF34F8F034A044BDA60BFF333
:100470004F8FC046FDE7C0460400FA0500ED00E0DE
:1004800080218023194A890230B5D1508023D2219E
:100490000124174A5B028900535040395350154BD1
:1004A000546019682F2314481D1CC046C046C0461E
:1004B000C046C046C046C046C046814200D0C04685
:1004C000013DF2D1946000220C4C2260C046C0462F
:1004D000C046C046C046C046C046C046814200D065
:1004E000C046013BF2D1064B1A7030BD00E100E07E
:1004F00000100140600000200024F4001C010020D6
:100500003C010020A021F0B5002347462B4A4900BA
:1005100080B453500431535004315350043153507C
:100520004C39535004315350254B1B68002B35D0A8
:100530002449002652582449244F0C68141B0022D9
:100540002402240A904602E0002D18D02B1C1A68C1
:10055000A24214D8A41AB6181A7CDD69002AF3D076
:10056000424699691A745A693B68002B19D0101CCD
:1005700098470028E8D0FFF765FF002DE6D1144B1F
:1005800014491A780B789A420ED0134A9B009E5059
:1005900080218023114A49035B00D15004BC90465E
:1005A000F0BD081C9047CFE70132D3B2022B01D037
:1005B0000B70EAE700230B70E7E7C046001001402C
:1005C00020010020040500001C010020240100205F
:1005D00028010020290100203401002000E100E072
:1005E000F0B556465F464D464446F0B4904B914AAE
:1005F0001B6891499A460978137887B0994200D1CF
:10060000CEE10133DBB2022B00D19DE113708B4AA6
:100610009B009B58864A984653441B021B0A136052
:1006200001230293864B00241978864B1B68994658
:10063000834B5B780193824B5B689C46804B67469B
:100640009D787B4BCC461B6800937F4B1B789B4669
:100650004B46019A91421AD04A0052180131C9B250
:10066000481B461EB041D2004042BA1801401078E3
:10067000022800D1A6E00328EBD1002BE9D01C749E
:10068000DB69002BFBD1019A9C469142E4D159468B
:1006900066466D4A1170664A00991160694A166093
:1006A000029A002A00D058E14A46D21A511E8A41C5
:1006B00000251E1CD2B2059203935D4B00271B68D8
:1006C0009846604B1B689B465D4B5B689A465C4B4B
:1006D0001B789C465A4B9B7802935B4B1B78049388
:1006E0005A4B009301239946002D27D06968A868CA
:1006F0002C1CED694346CA1A009B1202120A9A4248
:100700004DD813184A4623606760A7602274E761DA
:10071000002E53D03168301C994204D37AE011681E
:1007200099427ED2101CC2695B1A002AF7D1E2619D
:10073000321C2360C461161C002DD7D1019B9C453F
:1007400000D185E0624663460132D2B25B00634469
:1007500094460299DB00521A511E8A416146524268
:10076000114053448C4619785C68321C0129E2D14F
:10077000217C0029DFD199686160D868A0601A697E
:10078000E2605B69A361049B002BB3D04346002168
:10079000CA1A009B12026560120A9A42B1D94346F6
:1007A000591A0902090A81422AD24A46431A236089
:1007B0006760A7602274E761002EABD1221CA346BC
:1007C000161CB9E75668002B00D1F0E0181C9E42B9
:1007D00001D1BBE0101CC269002A00D139E7964262
:1007E000F8D1321E824200D1B0E01668D269C261EF
:1007F000002A00D12DE713689B191360634628E790
:100800004B4627606760A7602374E761002ED5D050
:1008100000233168221CCB1A3360A346E661161C04
:100820008AE7C91A1160E2612360321CC46182E761
:100830001C01002028010020290100203401002093
:100840002C010020200100202A010020FEFF7F0053
:100850006246614B1A705A46604B1A60039BB34262
:1008600000D163E0002E00D19EE05D4B5D495E4DFE
:10087000C8585E4B34681A682E78831A1B021B0A0C
:1008800003339846002E21D18026D1277602BF005F
:10089000CE51403FCE51C0238027554EBF025B0052
:1008A000F750376001260E605249534B0F682F21D5
:1008B000C046C046C046C046C046C046C046C04608
:1008C0009F4200D0C0460139F2D12E704346A34268
:1008D00000D2231CA8249A1812024249130AE400E9
:1008E0003F4D0B514A591B1A121A1202120A1B02CF
:1008F00003321B0A9A421DD94B590B513D4B3E49BD
:100900001A682F23C046C046C046C046C046C046EF
:10091000C046C0468A4200D0C046013BF2D1802189
:100920008023334A89025B00D15003E0059B002BF2
:1009300000D097E70023314A137007B03CBC9046C3
:100940009946A246AB46F0BD00235FE6DE69002E65
:1009500038D0B446331C021C47E70025002200248F
:10096000404613E01968814223D8DE68401A5218C5
:100970001C60DF69002E07D05146DD611D1C511837
:100980000902090A59609E603B1C3E1C002BE9D1FC
:10099000124B1E600023039301330593039E8CE6E4
:1009A0000023984602933DE6FFF76AFDC2E7002365
:1009B0004FE60F1A03931F600123084A0593166040
:1009C000039E7AE60122074B9A60002300960136C7
:1009D0009C46021CB34608E72C01002020010020A1
:1009E00004050000001001403C0100201C01002013
:1009F00000E100E0600000200024F4002A01002053
:100A000010B51B4B1A68002A1BD11A4B1A68002A12
:100A100000D110BD00221A60C223802202219B0057
:100A2000D205D1500123144CA3702369002BF0D0C0
:100A30001A68012022615B6898472369002BF7D16F
:100A4000E7E7002280211A60C22201230A4C9200AB
:100A5000C9058B506370A368002BD6D01A6800209C
:100A6000A2605B689847A368002BF7D1CDE7C0462A
:100A7000000100400401004040010020C12310B5E6
:100A8000614A9B00D35884B09B054FD592235B00ED
:100A9000D15800294AD00021D1508121E533890065
:100AA000FF33D150594B997E002901D1013151605A
:100AB000022269460A7090215348C90042584250A8
:100AC00069460392DA7D68460A72DA68196801920B
:100AD0000022DA751A765B6898478E214A4A4900E7
:100AE0005358002B0FD0494B9C8A987D84424FD29B
:100AF00000205050998A9868405C998A013189B2E7
:100B00009982434BD050A2233F4A5B00D158002921
:100B10000AD00021D1503D4B997E002901D00121FE
:100B20001160DA7D002A42D104B010BDC123364ADB
:100B30009B00D3585B07D0D5842149005358002B24
:100B4000CBD0324BD87D00283ED15050A321C900D4
:100B500052585A7E8242C0D11A7E002A42D19A7ED1
:100B6000002A02D10121284A51608120C22226494F
:100B7000800092008850002268460121DA755A7E72
:100B800001700272DA68196801925B689847A4E7FD
:100B9000002454500028B6D06A46147010729A6827
:100BA0009C75196801925B6868469847ABE700221C
:100BB00068460121DA755A7E01700272DA68196896
:100BC00001925B689847AFE700205050A320C00017
:100BD000597E1258D86842545A7ED87D0132D2B21A
:100BE0005A76B6E7DA751A69D968DA6000226C4677
:100BF000587E1A765A760132207201912270196855
:100C000068465B68984768E7002000405401002070
:100C10001C050000FEE7C04603210A4802680A439B
:100C20000260094802680A4302600849084A094B01
:100C30009B1A03DD043BC858D050FBDC00F012F8CF
:100C4000FFF798FA24050040540500407C0D000091
:100C50000000002070000020FEE7FEE7FEE7FEE750
:100C6000FEE7FEE7304B1B78012B00D070472F4B7F
:100C70001B681B07FAD1F0222D4B1B68134027D1AC
:100C80002C4B1B68134229D0284B1B681B07EDD146
:100C9000F022274B1B681340402B32D0244B1A689C
:100CA000F0231340A02B01D0D02BDFD1214B1A68A9
:100CB000F0231A42DAD1204A1368012B04D01F4BCB
:100CC00013601368012BFCD1C0221D4B1A60CDE7C5
:100CD000102B0FD1174B1B681342D9D1194A1A4B4D
:100CE0001A608022194B12021A600F4B1B78012BDD
:100CF000CAD0BBE7302BCBD10E4B1B681342C7D1F8
:100D0000ECE70C4B1B681342C8D1C12380220121A0
:100D1000DB00D205D150044B1B78012BA6D1034B2D
:100D20001B681B07BAD0A1E7E00F00F0E40F00F04A
:100D3000E80F00F0EC0F00F000EC064075930000A7
:100D400014EC0640DFFF07C004050040186C0040AB
:100D5000F8B5C046F8BC08BC9E467047F8B5C0461A
:100D6000F8BC08BC9E46704743000000000000200D
:040D7000000000007F
:080D740000F4FF7F0100000004
:100D7C000000000000000000000000000000000067
:100D8C000000000000000000000000000000000057
:100D9C00680D0000000000000000000000000000D2
:100DAC000000000000000000000000000000000037
:100DBC000000000000000000000000000000000027
:100DCC000000000000000000000000000000000017
:100DDC000024F400390100000D01000000000000A7
:0400000300000C19D4
:00000001FF
