:1000000000800020210A0000610A0000630A00004D
:1000100000000000000000000000000000000000E0
:10002000000000000000000000000000650A000061
:100030000000000000000000670A0000690A0000DC
:100040000D0800006B0A0000850800006B0A000024
:100050006B0A0000000000006B0A00006B0A000041
:100060006B0A00006B0A00006B0A00006B0A0000BC
:100070006B0A00006B0A00006B0A00006B0A0000AC
:100080006B0A00005D0200006B0A00006B0A0000B2
:10009000390300006B0A00006B0A00006B0A0000C5
:1000A0006B0A00006B0A0000000000000000000066
:1000B0000000000000000000000000000000000040
:1000C00010B5064C2378002B07D1054B002B02D02E
:1000D000044800E000BF0123237010BD7000002021
:1000E000000000006C0B0000084B10B5002B03D083
:1000F0000749084800E000BF07480368002B00D10B
:1001000010BD064B002BFBD09847F9E7000000001C
:10011000740000206C0B00006C0000200000000048
:10012000164B002B00D1144B9D46402292029A1A86
:10013000924600218B460F461348144A121A00F0CB
:1001400065F80F4B002B00D098470E4B002B00D0CA
:1001500098470020002104000D000D48002802D01F
:100160000C4800E000BF00F02DF82000290000F04E
:1001700055FC00F011F8C046000008000080002087
:10018000000000000000000070000020E0000020DF
:100190000000000000000000084B10B50400002B18
:1001A00002D0002100E000BF054B1868836A002BD5
:1001B00000D09847200000F031F8C0460000000051
:1001C000680B000070B500260C4D0D4C641BA4108C
:1001D000A64209D1002600F0BBFC0A4D0A4C641B64
:1001E000A410A64205D170BDB300EB589847013664
:1001F000EEE7B300EB5898470136F2E764000020C1
:1002000064000020640000206800002003008218C1
:10021000934200D1704719700133F9E7FEE7C046F9
:10022000002300B585B001AA906000210348138027
:10023000536000F005F805B000BDC0460140000065
:10024000BFF34F8F034A044BDA60BFF34F8FC046B2
:10025000FDE7C0460400FA0500ED00E0A021F0B57E
:100260000023C6462B4A490000B553500431535071
:1002700004315350043153504C39535004315350CE
:10028000254B1B68002B35D0244900265458244A9E
:10029000244F1268A41A00222402240A904602E085
:1002A000002D18D02B001A68A24214D8A41AB61830
:1002B0001A7CDD69002AF3D0424699691A745A699A
:1002C0003B68002B19D0100098470028E8D0FFF7B2
:1002D000A7FF002DE6D11449144A0B7812789A42F0
:1002E0000ED0134A9B009E5080218023114A49035F
:1002F0005B00D15004BC9046F0BD08009047CFE7AA
:100300000132D3B2022B01D00B70EAE700230B704D
:10031000E7E7C04600100140AC00002004050000E3
:10032000A80000208C000020A5000020A4000020D0
:100330009C00002000E100E0F0B55746DE464E4646
:100340004546E0B5AD4BAE4A1B68AE499A460978C2
:1003500013788BB0994200D118E10133DBB2022B44
:1003600000D117E11370A84A9B009E5853469B1971
:100370001B02A24A1B0A136001230693A34B002011
:100380001B789B46A24B5A461B6898469F4B454696
:100390005C785B68474603939C4B9B780493974B30
:1003A0001B6809939B4B1B780793002308930593C5
:1003B0000193A2421CD00399530089469B180499CB
:1003C0000132DB00D2B24B448A4200D1D4E019782A
:1003D000022900D1A0E00329EBD1002FE9D0387425
:1003E000FF69002FFBD1012300250193A242E2D136
:1003F000019B9146002B00D0DBE0059B002B02D037
:100400007E4B099A1A60089B002B03D06A46814BE9
:10041000127F1A70069B002B00D065E14346DB1B60
:100420005A1E93410025DBB206937A4B3E001B789F
:100430000793724B1B689846754B1B68019300230A
:10044000029305939C46744B9A46002D28D06B6806
:10045000A9682C00ED6942469A1A1202120A524506
:1004600051D85218226063466360A360012323744D
:100470006346E361002E00D1B8E03168300091425C
:1004800005D3ABE01968914200D395E01800C36929
:10049000521A002BF6D12260E361C461002DD6D13F
:1004A0005B464846984200D1BAE003995A00894613
:1004B000D21804990133D200DBB24A44994200D1E8
:1004C00099E00124117805940129EBD15468217C2D
:1004D00005910029E6D19B46936881466360D16807
:1004E000A1601069E0605269A261079A002A00D1F8
:1004F000F3E0059B05926360424600239A1A1202BC
:10050000120A5245ADD94246D31A1B021B0A8B422E
:1005100058D2CA1A2260A6E75B68002F00D148E7CC
:100520003900BB422AD09146019A94461A0002E053
:100530009A4207D01900CB69002BF9D163464A468D
:10054000019336E7634602920193029B4A4699461D
:100550008B4214D04B461B6802934B46DB6999468D
:10056000CB61002B00D124E71B6849469C46029BC7
:100570002F0063440B601CE7002228E7B946FF699F
:10058000002F09D001233D000193E3E7002300265B
:100590000693F3E60023E5E60125204B9D60012349
:1005A00008930793059300230993013300250193D2
:1005B000D0E7174B1D6020E7891A19602260E361BC
:1005C000C4616BE7634623606360A3600123237407
:1005D0006346E361002E09D00022316801238A1AA4
:1005E00032600194E661029326002EE70123019414
:1005F0002600029329E7002363E7C046A8000020F5
:10060000A4000020A50000209C00002090000020F5
:10061000AC00002098000020FEFF7F000010014089
:10062000059B002B00D0D9E0029B002B02D06D4B24
:10063000019A1A60BE4253D0002E00D197E06A4A58
:100640006A496B4C88584246821A12022578120A6F
:1006500033680332002D21D18025D1266D02B600EA
:100660008D51403E8D51C0278026624DB6027F00DD
:10067000EE512E6001250D605F49604F0E682F21FD
:10068000C046C046C046C046C046C046C046C0463A
:10069000BE4200D0C0460139F2D12570934200D24B
:1006A0001300A824434451491B021B0AE4004E4D89
:1006B0000B514A591B1A121A1202120A1B02033258
:1006C0001B0A9A4239D800234D4A13700BB03CBC28
:1006D00090469946A246AB46F0BD01220592BAE685
:1006E000069B002BEFD0A7E73E4B00241B6800259C
:1006F0000021002013E03A68B24218D8F968B61A0F
:10070000A4183860FB69002907D05246FD613D00FE
:1007100012191202120A7A60B9601F000699002F9E
:10072000E9D1002900D180E62E4A13607DE6002938
:1007300000D050E0961B3E6077E64B590B512E4B94
:100740002E491A682F23C046C046C046C046C04640
:10075000C046C046C0468A4200D0C046013BF2D1E6
:1007600080218023234A89025B00D150ABE780219E
:100770008023204A8902D1508023D22101241B4AA0
:100780005B0289005350403953501B4B5460196829
:100790002F231A481D00C046C046C046C046C0466A
:1007A000C046C046C046814200D0C046013DF2D19D
:1007B0009460144A1660C046C046C046C046C04653
:1007C000C046C046C046814200D0C046013BF2D17F
:1007D000074B1E7077E703490B60ABE70A4B1870B5
:1007E00022E7C046AC0000200405000000100140D4
:1007F0009900002000E100E0600000200024F400E7
:1008000098000020A80000209000002010B51A4B8E
:100810001A68002A14D0002280211A60C222012303
:10082000164C9200C9058B506370A368002B07D04B
:100830001A6800205B68A2609847A368002BF7D174
:100840000F4B1A68002A15D000221A60C22380229A
:1008500002219B00D205D1500123084CA3702369CB
:10086000002B07D01A6801205B6822619847236932
:10087000002BF7D110BDC04600010040B0000020A1
:1008800004010040C12310B5614A9B00D35884B0D5
:100890009B054FD592235B00D15800294AD00021F7
:1008A000D1508121E5338900FF33D150594B997ED6
:1008B000002901D101315160022269460A7090215C
:1008C0005348C9004258425069460392DA7D68464F
:1008D0000A72DA68196801920022DA751A765B6882
:1008E00098478E214A4A49005358002B0FD0494B54
:1008F0009C8A987D84424FD200205050998A9868F3
:10090000405C998A013189B29982434BD050A2232D
:100910003F4A5B00D15800290AD00021D1503D4BFD
:10092000997E002901D001211160DA7D002A42D18F
:1009300004B010BDC123364A9B00D3585B07D0D505
:10094000842149005358002BCBD0324BD87D00284E
:100950003ED15050A321C90052585A7E8242C0D184
:100960001A7E002A42D19A7E002A02D10121284A09
:1009700051608120C22226498000920088500022C6
:1009800068460121DA755A7E01700272DA681968C8
:1009900001925B689847A4E7002454500028B6D021
:1009A0006A46147010729A689C75196801925B68A7
:1009B00068469847ABE7002268460121DA755A7EFF
:1009C00001700272DA68196801925B689847AFE7B4
:1009D00000205050A320C000597E1258D8684254BD
:1009E0005A7ED87D0132D2B25A76B6E7DA751A69E4
:1009F000D968DA6000226C46587E1A765A7601323F
:100A0000207201912270196868465B68984768E710
:100A100000200040C40000201C050000FEE7C04686
:100A200003210A4802680A430260094802680A432F
:100A300002600849084A094B9B1A03DD043BC85869
:100A4000D050FBDC00F012F8FFF76AFB24050040F1
:100A500054050040780B00000000002070000020CA
:100A6000FEE7FEE7FEE7FEE7FEE7FEE72E4B1B781C
:100A7000012B00D070472D4B1B681B07FAD1F022C9
:100A80002B4B1B68134027D12A4B1B6813422BD0DA
:100A9000264B1B681B07EDD1F022254B1B6813402A
:100AA000402B2DD0F022224B1B681340A02B01D0ED
:100AB000D02BDFD1F0231F4A12681A42DAD11E4A26
:100AC0001368012B04D01D4B13601368012BFCD15C
:100AD000C0221B4B1A60CDE7102B01D0302BDBD18D
:100AE000144B1B681342D7D1164A174B1A60802249
:100AF000164B12021A600C4B1B78012BC8D0B9E7B9
:100B00000C4B1B681342CDD1C12380220121DB0095
:100B1000D205D150044B1B78012BABD1034B1B6882
:100B20001B07BFD0A6E7C046E00F00F0E40F00F0BF
:100B3000E80F00F0EC0F00F000EC064075930000A9
:100B400014EC0640DFFF07C004050040186C0040AD
:100B5000F8B5C046F8BC08BC9E467047F8B5C0461C
:100B6000F8BC08BC9E467047000000200000000052
:080B7000B0F5FF7F0100000059
:100B7800000000000000000000000000000000006D
:100B8800000000000000000000000000000000005D
:100B9800000000000000000000000000000000004D
:100BA800000000000000000000000000000000003D
:100BB800000000000000000000000000000000002D
:100BC800000000000000000000000000000000001D
:100BD8000024F400E9000000C1000000000000004B
:0400000300000A21CE
:00000001FF
